{
  "contractName": "SupplyChain",
  "abi": [
    {
      "inputs": [],
      "payable": false,
      "stateMutability": "nonpayable",
      "type": "constructor"
    },
    {
      "anonymous": false,
      "inputs": [
        {
          "indexed": false,
          "internalType": "address",
          "name": "addedBy",
          "type": "address"
        },
        {
          "indexed": false,
          "internalType": "uint256",
          "name": "medicineID",
          "type": "uint256"
        },
        {
          "indexed": false,
          "internalType": "string",
          "name": "name",
          "type": "string"
        },
        {
          "indexed": false,
          "internalType": "string",
          "name": "message",
          "type": "string"
        }
      ],
      "name": "MedicineAdded",
      "type": "event"
    },
    {
      "anonymous": false,
      "inputs": [
        {
          "indexed": false,
          "internalType": "address",
          "name": "from",
          "type": "address"
        },
        {
          "indexed": false,
          "internalType": "uint256",
          "name": "medicineID",
          "type": "uint256"
        },
        {
          "indexed": false,
          "internalType": "uint256",
          "name": "disID",
          "type": "uint256"
        },
        {
          "indexed": false,
          "internalType": "string",
          "name": "message",
          "type": "string"
        }
      ],
      "name": "MedicineDistributed",
      "type": "event"
    },
    {
      "anonymous": false,
      "inputs": [
        {
          "indexed": false,
          "internalType": "address",
          "name": "from",
          "type": "address"
        },
        {
          "indexed": false,
          "internalType": "uint256",
          "name": "medicineID",
          "type": "uint256"
        },
        {
          "indexed": false,
          "internalType": "uint256",
          "name": "manID",
          "type": "uint256"
        },
        {
          "indexed": false,
          "internalType": "string",
          "name": "message",
          "type": "string"
        }
      ],
      "name": "MedicineManufactured",
      "type": "event"
    },
    {
      "anonymous": false,
      "inputs": [
        {
          "indexed": false,
          "internalType": "address",
          "name": "from",
          "type": "address"
        },
        {
          "indexed": false,
          "internalType": "uint256",
          "name": "medicineID",
          "type": "uint256"
        },
        {
          "indexed": false,
          "internalType": "uint256",
          "name": "retID",
          "type": "uint256"
        },
        {
          "indexed": false,
          "internalType": "string",
          "name": "message",
          "type": "string"
        }
      ],
      "name": "MedicineRetailed",
      "type": "event"
    },
    {
      "anonymous": false,
      "inputs": [
        {
          "indexed": false,
          "internalType": "address",
          "name": "from",
          "type": "address"
        },
        {
          "indexed": false,
          "internalType": "uint256",
          "name": "medicineID",
          "type": "uint256"
        },
        {
          "indexed": false,
          "internalType": "uint256",
          "name": "retID",
          "type": "uint256"
        },
        {
          "indexed": false,
          "internalType": "string",
          "name": "message",
          "type": "string"
        }
      ],
      "name": "MedicineSold",
      "type": "event"
    },
    {
      "anonymous": false,
      "inputs": [
        {
          "indexed": false,
          "internalType": "address",
          "name": "from",
          "type": "address"
        },
        {
          "indexed": false,
          "internalType": "uint256",
          "name": "medicineID",
          "type": "uint256"
        },
        {
          "indexed": false,
          "internalType": "uint256",
          "name": "rmsID",
          "type": "uint256"
        },
        {
          "indexed": false,
          "internalType": "string",
          "name": "message",
          "type": "string"
        }
      ],
      "name": "RawMaterialSupplied",
      "type": "event"
    },
    {
      "constant": true,
      "inputs": [
        {
          "internalType": "uint256",
          "name": "",
          "type": "uint256"
        }
      ],
      "name": "DIS",
      "outputs": [
        {
          "internalType": "address",
          "name": "addr",
          "type": "address"
        },
        {
          "internalType": "uint256",
          "name": "id",
          "type": "uint256"
        },
        {
          "internalType": "string",
          "name": "name",
          "type": "string"
        },
        {
          "internalType": "string",
          "name": "place",
          "type": "string"
        }
      ],
      "payable": false,
      "stateMutability": "view",
      "type": "function"
    },
    {
      "constant": true,
      "inputs": [
        {
          "internalType": "uint256",
          "name": "",
          "type": "uint256"
        }
      ],
      "name": "MAN",
      "outputs": [
        {
          "internalType": "address",
          "name": "addr",
          "type": "address"
        },
        {
          "internalType": "uint256",
          "name": "id",
          "type": "uint256"
        },
        {
          "internalType": "string",
          "name": "name",
          "type": "string"
        },
        {
          "internalType": "string",
          "name": "place",
          "type": "string"
        }
      ],
      "payable": false,
      "stateMutability": "view",
      "type": "function"
    },
    {
      "constant": true,
      "inputs": [
        {
          "internalType": "uint256",
          "name": "",
          "type": "uint256"
        }
      ],
      "name": "MedicineStock",
      "outputs": [
        {
          "internalType": "uint256",
          "name": "id",
          "type": "uint256"
        },
        {
          "internalType": "string",
          "name": "name",
          "type": "string"
        },
        {
          "internalType": "string",
          "name": "description",
          "type": "string"
        },
        {
          "internalType": "uint256",
          "name": "RMSid",
          "type": "uint256"
        },
        {
          "internalType": "uint256",
          "name": "MANid",
          "type": "uint256"
        },
        {
          "internalType": "uint256",
          "name": "DISid",
          "type": "uint256"
        },
        {
          "internalType": "uint256",
          "name": "RETid",
          "type": "uint256"
        },
        {
          "internalType": "enum SupplyChain.STAGE",
          "name": "stage",
          "type": "uint8"
        }
      ],
      "payable": false,
      "stateMutability": "view",
      "type": "function"
    },
    {
      "constant": true,
      "inputs": [],
      "name": "Owner",
      "outputs": [
        {
          "internalType": "address",
          "name": "",
          "type": "address"
        }
      ],
      "payable": false,
      "stateMutability": "view",
      "type": "function"
    },
    {
      "constant": true,
      "inputs": [
        {
          "internalType": "uint256",
          "name": "",
          "type": "uint256"
        }
      ],
      "name": "RET",
      "outputs": [
        {
          "internalType": "address",
          "name": "addr",
          "type": "address"
        },
        {
          "internalType": "uint256",
          "name": "id",
          "type": "uint256"
        },
        {
          "internalType": "string",
          "name": "name",
          "type": "string"
        },
        {
          "internalType": "string",
          "name": "place",
          "type": "string"
        }
      ],
      "payable": false,
      "stateMutability": "view",
      "type": "function"
    },
    {
      "constant": true,
      "inputs": [
        {
          "internalType": "uint256",
          "name": "",
          "type": "uint256"
        }
      ],
      "name": "RMS",
      "outputs": [
        {
          "internalType": "address",
          "name": "addr",
          "type": "address"
        },
        {
          "internalType": "uint256",
          "name": "id",
          "type": "uint256"
        },
        {
          "internalType": "string",
          "name": "name",
          "type": "string"
        },
        {
          "internalType": "string",
          "name": "place",
          "type": "string"
        }
      ],
      "payable": false,
      "stateMutability": "view",
      "type": "function"
    },
    {
      "constant": true,
      "inputs": [],
      "name": "disCtr",
      "outputs": [
        {
          "internalType": "uint256",
          "name": "",
          "type": "uint256"
        }
      ],
      "payable": false,
      "stateMutability": "view",
      "type": "function"
    },
    {
      "constant": true,
      "inputs": [],
      "name": "manCtr",
      "outputs": [
        {
          "internalType": "uint256",
          "name": "",
          "type": "uint256"
        }
      ],
      "payable": false,
      "stateMutability": "view",
      "type": "function"
    },
    {
      "constant": true,
      "inputs": [],
      "name": "medicineCtr",
      "outputs": [
        {
          "internalType": "uint256",
          "name": "",
          "type": "uint256"
        }
      ],
      "payable": false,
      "stateMutability": "view",
      "type": "function"
    },
    {
      "constant": true,
      "inputs": [],
      "name": "retCtr",
      "outputs": [
        {
          "internalType": "uint256",
          "name": "",
          "type": "uint256"
        }
      ],
      "payable": false,
      "stateMutability": "view",
      "type": "function"
    },
    {
      "constant": true,
      "inputs": [],
      "name": "rmsCtr",
      "outputs": [
        {
          "internalType": "uint256",
          "name": "",
          "type": "uint256"
        }
      ],
      "payable": false,
      "stateMutability": "view",
      "type": "function"
    },
    {
      "constant": true,
      "inputs": [
        {
          "internalType": "uint256",
          "name": "_medicineID",
          "type": "uint256"
        }
      ],
      "name": "showStage",
      "outputs": [
        {
          "internalType": "string",
          "name": "",
          "type": "string"
        }
      ],
      "payable": false,
      "stateMutability": "view",
      "type": "function"
    },
    {
      "constant": false,
      "inputs": [
        {
          "internalType": "address",
          "name": "_address",
          "type": "address"
        },
        {
          "internalType": "string",
          "name": "_name",
          "type": "string"
        },
        {
          "internalType": "string",
          "name": "_place",
          "type": "string"
        }
      ],
      "name": "addRMS",
      "outputs": [],
      "payable": false,
      "stateMutability": "nonpayable",
      "type": "function"
    },
    {
      "constant": false,
      "inputs": [
        {
          "internalType": "address",
          "name": "_address",
          "type": "address"
        },
        {
          "internalType": "string",
          "name": "_name",
          "type": "string"
        },
        {
          "internalType": "string",
          "name": "_place",
          "type": "string"
        }
      ],
      "name": "addManufacturer",
      "outputs": [],
      "payable": false,
      "stateMutability": "nonpayable",
      "type": "function"
    },
    {
      "constant": false,
      "inputs": [
        {
          "internalType": "address",
          "name": "_address",
          "type": "address"
        },
        {
          "internalType": "string",
          "name": "_name",
          "type": "string"
        },
        {
          "internalType": "string",
          "name": "_place",
          "type": "string"
        }
      ],
      "name": "addDistributor",
      "outputs": [],
      "payable": false,
      "stateMutability": "nonpayable",
      "type": "function"
    },
    {
      "constant": false,
      "inputs": [
        {
          "internalType": "address",
          "name": "_address",
          "type": "address"
        },
        {
          "internalType": "string",
          "name": "_name",
          "type": "string"
        },
        {
          "internalType": "string",
          "name": "_place",
          "type": "string"
        }
      ],
      "name": "addRetailer",
      "outputs": [],
      "payable": false,
      "stateMutability": "nonpayable",
      "type": "function"
    },
    {
      "constant": false,
      "inputs": [
        {
          "internalType": "uint256",
          "name": "_medicineID",
          "type": "uint256"
        }
      ],
      "name": "RMSsupply",
      "outputs": [],
      "payable": false,
      "stateMutability": "nonpayable",
      "type": "function"
    },
    {
      "constant": false,
      "inputs": [
        {
          "internalType": "uint256",
          "name": "_medicineID",
          "type": "uint256"
        }
      ],
      "name": "Manufacturing",
      "outputs": [],
      "payable": false,
      "stateMutability": "nonpayable",
      "type": "function"
    },
    {
      "constant": false,
      "inputs": [
        {
          "internalType": "uint256",
          "name": "_medicineID",
          "type": "uint256"
        }
      ],
      "name": "Distribute",
      "outputs": [],
      "payable": false,
      "stateMutability": "nonpayable",
      "type": "function"
    },
    {
      "constant": false,
      "inputs": [
        {
          "internalType": "uint256",
          "name": "_medicineID",
          "type": "uint256"
        }
      ],
      "name": "Retail",
      "outputs": [],
      "payable": false,
      "stateMutability": "nonpayable",
      "type": "function"
    },
    {
      "constant": false,
      "inputs": [
        {
          "internalType": "uint256",
          "name": "_medicineID",
          "type": "uint256"
        }
      ],
      "name": "sold",
      "outputs": [],
      "payable": false,
      "stateMutability": "nonpayable",
      "type": "function"
    },
    {
      "constant": false,
      "inputs": [
        {
          "internalType": "string",
          "name": "_name",
          "type": "string"
        },
        {
          "internalType": "string",
          "name": "_description",
          "type": "string"
        }
      ],
      "name": "addMedicine",
      "outputs": [],
      "payable": false,
      "stateMutability": "nonpayable",
      "type": "function"
    }
  ],
  "bytecode": "0x60806040526000600155600060025560006003556000600455600060055534801561002957600080fd5b50336000806101000a81548173ffffffffffffffffffffffffffffffffffffffff021916908373ffffffffffffffffffffffffffffffffffffffff160217905550613609806100796000396000f3fe608060405234801561001057600080fd5b50600436106101425760003560e01c806386c18275116100b8578063b4a99a4e1161007c578063b4a99a4e14610c59578063cc40306914610ca3578063dd28639814610df0578063e101a2e014610e0e578063eb1a06b514610eb5578063eef5cb401461100057610142565b806386c1827514610a5f5780638f4183cc14610a8d5780639c03facb14610bdf578063a48d335a14610c0d578063a95f29d914610c3b57610142565b8063438e9c4d1161010a578063438e9c4d146105c45780634def474a146105e257806359bf286f146106105780636a992c9f1461075d5780637e43d94d146108cf578063857ddb04146108ed57610142565b80632a4af440146101475780632b0187ac146102b95780632b70b08d146104065780632bdb2e6b146105785780633d753a1c14610596575b600080fd5b6102b76004803603606081101561015d57600080fd5b81019080803573ffffffffffffffffffffffffffffffffffffffff1690602001909291908035906020019064010000000081111561019a57600080fd5b8201836020820111156101ac57600080fd5b803590602001918460018302840111640100000000831117156101ce57600080fd5b91908080601f016020809104026020016040519081016040528093929190818152602001838380828437600081840152601f19601f8201169050808301925050505050505091929192908035906020019064010000000081111561023157600080fd5b82018360208201111561024357600080fd5b8035906020019184600183028401116401000000008311171561026557600080fd5b91908080601f016020809104026020016040519081016040528093929190818152602001838380828437600081840152601f19601f82011690508083019250505050505050919291929050505061114d565b005b6102e5600480360360208110156102cf57600080fd5b8101908080359060200190929190505050611299565b604051808573ffffffffffffffffffffffffffffffffffffffff1673ffffffffffffffffffffffffffffffffffffffff1681526020018481526020018060200180602001838103835285818151815260200191508051906020019080838360005b83811015610361578082015181840152602081019050610346565b50505050905090810190601f16801561038e5780820380516001836020036101000a031916815260200191505b50838103825284818151815260200191508051906020019080838360005b838110156103c75780820151818401526020810190506103ac565b50505050905090810190601f1680156103f45780820380516001836020036101000a031916815260200191505b50965050505050505060405180910390f35b6105766004803603606081101561041c57600080fd5b81019080803573ffffffffffffffffffffffffffffffffffffffff1690602001909291908035906020019064010000000081111561045957600080fd5b82018360208201111561046b57600080fd5b8035906020019184600183028401116401000000008311171561048d57600080fd5b91908080601f016020809104026020016040519081016040528093929190818152602001838380828437600081840152601f19601f820116905080830192505050505050509192919290803590602001906401000000008111156104f057600080fd5b82018360208201111561050257600080fd5b8035906020019184600183028401116401000000008311171561052457600080fd5b91908080601f016020809104026020016040519081016040528093929190818152602001838380828437600081840152601f19601f820116905080830192505050505050509192919290505050611419565b005b610580611565565b6040518082815260200191505060405180910390f35b6105c2600480360360208110156105ac57600080fd5b810190808035906020019092919050505061156b565b005b6105cc611807565b6040518082815260200191505060405180910390f35b61060e600480360360208110156105f857600080fd5b810190808035906020019092919050505061180d565b005b61063c6004803603602081101561062657600080fd5b8101908080359060200190929190505050611aa9565b604051808573ffffffffffffffffffffffffffffffffffffffff1673ffffffffffffffffffffffffffffffffffffffff1681526020018481526020018060200180602001838103835285818151815260200191508051906020019080838360005b838110156106b857808201518184015260208101905061069d565b50505050905090810190601f1680156106e55780820380516001836020036101000a031916815260200191505b50838103825284818151815260200191508051906020019080838360005b8381101561071e578082015181840152602081019050610703565b50505050905090810190601f16801561074b5780820380516001836020036101000a031916815260200191505b50965050505050505060405180910390f35b6108cd6004803603606081101561077357600080fd5b81019080803573ffffffffffffffffffffffffffffffffffffffff169060200190929190803590602001906401000000008111156107b057600080fd5b8201836020820111156107c257600080fd5b803590602001918460018302840111640100000000831117156107e457600080fd5b91908080601f016020809104026020016040519081016040528093929190818152602001838380828437600081840152601f19601f8201169050808301925050505050505091929192908035906020019064010000000081111561084757600080fd5b82018360208201111561085957600080fd5b8035906020019184600183028401116401000000008311171561087b57600080fd5b91908080601f016020809104026020016040519081016040528093929190818152602001838380828437600081840152601f19601f820116905080830192505050505050509192919290505050611c29565b005b6108d7611d75565b6040518082815260200191505060405180910390f35b610a5d6004803603606081101561090357600080fd5b81019080803573ffffffffffffffffffffffffffffffffffffffff1690602001909291908035906020019064010000000081111561094057600080fd5b82018360208201111561095257600080fd5b8035906020019184600183028401116401000000008311171561097457600080fd5b91908080601f016020809104026020016040519081016040528093929190818152602001838380828437600081840152601f19601f820116905080830192505050505050509192919290803590602001906401000000008111156109d757600080fd5b8201836020820111156109e957600080fd5b80359060200191846001830284011164010000000083111715610a0b57600080fd5b91908080601f016020809104026020016040519081016040528093929190818152602001838380828437600081840152601f19601f820116905080830192505050505050509192919290505050611d7b565b005b610a8b60048036036020811015610a7557600080fd5b8101908080359060200190929190505050611ec7565b005b610bdd60048036036040811015610aa357600080fd5b8101908080359060200190640100000000811115610ac057600080fd5b820183602082011115610ad257600080fd5b80359060200191846001830284011164010000000083111715610af457600080fd5b91908080601f016020809104026020016040519081016040528093929190818152602001838380828437600081840152601f19601f82011690508083019250505050505050919291929080359060200190640100000000811115610b5757600080fd5b820183602082011115610b6957600080fd5b80359060200191846001830284011164010000000083111715610b8b57600080fd5b91908080601f016020809104026020016040519081016040528093929190818152602001838380828437600081840152601f19601f820116905080830192505050505050509192919290505050612180565b005b610c0b60048036036020811015610bf557600080fd5b8101908080359060200190929190505050612434565b005b610c3960048036036020811015610c2357600080fd5b81019080803590602001909291905050506126f4565b005b610c43612990565b6040518082815260200191505060405180910390f35b610c61612996565b604051808273ffffffffffffffffffffffffffffffffffffffff1673ffffffffffffffffffffffffffffffffffffffff16815260200191505060405180910390f35b610ccf60048036036020811015610cb957600080fd5b81019080803590602001909291905050506129bb565b604051808573ffffffffffffffffffffffffffffffffffffffff1673ffffffffffffffffffffffffffffffffffffffff1681526020018481526020018060200180602001838103835285818151815260200191508051906020019080838360005b83811015610d4b578082015181840152602081019050610d30565b50505050905090810190601f168015610d785780820380516001836020036101000a031916815260200191505b50838103825284818151815260200191508051906020019080838360005b83811015610db1578082015181840152602081019050610d96565b50505050905090810190601f168015610dde5780820380516001836020036101000a031916815260200191505b50965050505050505060405180910390f35b610df8612b3b565b6040518082815260200191505060405180910390f35b610e3a60048036036020811015610e2457600080fd5b8101908080359060200190929190505050612b41565b6040518080602001828103825283818151815260200191508051906020019080838360005b83811015610e7a578082015181840152602081019050610e5f565b50505050905090810190601f168015610ea75780820380516001836020036101000a031916815260200191505b509250505060405180910390f35b610ee160048036036020811015610ecb57600080fd5b8101908080359060200190929190505050612eba565b604051808981526020018060200180602001888152602001878152602001868152602001858152602001846005811115610f1757fe5b60ff16815260200183810383528a818151815260200191508051906020019080838360005b83811015610f57578082015181840152602081019050610f3c565b50505050905090810190601f168015610f845780820380516001836020036101000a031916815260200191505b50838103825289818151815260200191508051906020019080838360005b83811015610fbd578082015181840152602081019050610fa2565b50505050905090810190601f168015610fea5780820380516001836020036101000a031916815260200191505b509a505050505050505050505060405180910390f35b61102c6004803603602081101561101657600080fd5b810190808035906020019092919050505061303f565b604051808573ffffffffffffffffffffffffffffffffffffffff1673ffffffffffffffffffffffffffffffffffffffff1681526020018481526020018060200180602001838103835285818151815260200191508051906020019080838360005b838110156110a857808201518184015260208101905061108d565b50505050905090810190601f1680156110d55780820380516001836020036101000a031916815260200191505b50838103825284818151815260200191508051906020019080838360005b8381101561110e5780820151818401526020810190506110f3565b50505050905090810190601f16801561113b5780820380516001836020036101000a031916815260200191505b50965050505050505060405180910390f35b6000809054906101000a900473ffffffffffffffffffffffffffffffffffffffff1673ffffffffffffffffffffffffffffffffffffffff163373ffffffffffffffffffffffffffffffffffffffff16146111a657600080fd5b60046000815480929190600101919050555060405180608001604052808473ffffffffffffffffffffffffffffffffffffffff16815260200160045481526020018381526020018281525060096000600454815260200190815260200160002060008201518160000160006101000a81548173ffffffffffffffffffffffffffffffffffffffff021916908373ffffffffffffffffffffffffffffffffffffffff1602179055506020820151816001015560408201518160020190805190602001906112739291906134c3565b5060608201518160030190805190602001906112909291906134c3565b50905050505050565b60096020528060005260406000206000915090508060000160009054906101000a900473ffffffffffffffffffffffffffffffffffffffff1690806001015490806002018054600181600116156101000203166002900480601f0160208091040260200160405190810160405280929190818152602001828054600181600116156101000203166002900480156113715780601f1061134657610100808354040283529160200191611371565b820191906000526020600020905b81548152906001019060200180831161135457829003601f168201915b505050505090806003018054600181600116156101000203166002900480601f01602080910402602001604051908101604052809291908181526020018280546001816001161561010002031660029004801561140f5780601f106113e45761010080835404028352916020019161140f565b820191906000526020600020905b8154815290600101906020018083116113f257829003601f168201915b5050505050905084565b6000809054906101000a900473ffffffffffffffffffffffffffffffffffffffff1673ffffffffffffffffffffffffffffffffffffffff163373ffffffffffffffffffffffffffffffffffffffff161461147257600080fd5b60026000815480929190600101919050555060405180608001604052808473ffffffffffffffffffffffffffffffffffffffff16815260200160025481526020018381526020018281525060076000600254815260200190815260200160002060008201518160000160006101000a81548173ffffffffffffffffffffffffffffffffffffffff021916908373ffffffffffffffffffffffffffffffffffffffff16021790555060208201518160010155604082015181600201908051906020019061153f9291906134c3565b50606082015181600301908051906020019061155c9291906134c3565b50905050505050565b60045481565b60008111801561157d57506001548111155b6115ef576040517f08c379a00000000000000000000000000000000000000000000000000000000081526004018080602001828103825260138152602001807f496e76616c6964206d65646963696e652049440000000000000000000000000081525060200191505060405180910390fd5b60006115fa336131bf565b905060008111611672576040517f08c379a00000000000000000000000000000000000000000000000000000000081526004018080602001828103825260128152602001807f52657461696c6572206e6f7420666f756e64000000000000000000000000000081525060200191505060405180910390fd5b6003600581111561167f57fe5b6006600084815260200190815260200160002060070160009054906101000a900460ff1660058111156116ae57fe5b14611704576040517f08c379a00000000000000000000000000000000000000000000000000000000081526004018080602001828103825260228152602001806135926022913960400191505060405180910390fd5b80600660008481526020019081526020016000206006018190555060046006600084815260200190815260200160002060070160006101000a81548160ff0219169083600581111561175257fe5b02179055507fb13b99d812acd15e27dca15a68de58670afa9e031e82eca3bf39aa06ff6662db338383604051808473ffffffffffffffffffffffffffffffffffffffff1673ffffffffffffffffffffffffffffffffffffffff168152602001838152602001828152602001806020018281038252600c8152602001807f52657461696c205374616765000000000000000000000000000000000000000081525060200194505050505060405180910390a15050565b60035481565b60008111801561181f57506001548111155b611891576040517f08c379a00000000000000000000000000000000000000000000000000000000081526004018080602001828103825260138152602001807f496e76616c6964206d65646963696e652049440000000000000000000000000081525060200191505060405180910390fd5b600061189c33613280565b905060008111611914576040517f08c379a00000000000000000000000000000000000000000000000000000000081526004018080602001828103825260158152602001807f4469737472696275746f72206e6f7420666f756e64000000000000000000000081525060200191505060405180910390fd5b6002600581111561192157fe5b6006600084815260200190815260200160002060070160009054906101000a900460ff16600581111561195057fe5b146119a6576040517f08c379a00000000000000000000000000000000000000000000000000000000081526004018080602001828103825260218152602001806135b46021913960400191505060405180910390fd5b80600660008481526020019081526020016000206005018190555060036006600084815260200190815260200160002060070160006101000a81548160ff021916908360058111156119f457fe5b02179055507f6918dacf76af0c08630f07a7f0b313b912bca4e810d7e6db82705cd385356eaa338383604051808473ffffffffffffffffffffffffffffffffffffffff1673ffffffffffffffffffffffffffffffffffffffff16815260200183815260200182815260200180602001828103825260128152602001807f446973747269627574696f6e205374616765000000000000000000000000000081525060200194505050505060405180910390a15050565b600a6020528060005260406000206000915090508060000160009054906101000a900473ffffffffffffffffffffffffffffffffffffffff1690806001015490806002018054600181600116156101000203166002900480601f016020809104026020016040519081016040528092919081815260200182805460018160011615610100020316600290048015611b815780601f10611b5657610100808354040283529160200191611b81565b820191906000526020600020905b815481529060010190602001808311611b6457829003601f168201915b505050505090806003018054600181600116156101000203166002900480601f016020809104026020016040519081016040528092919081815260200182805460018160011615610100020316600290048015611c1f5780601f10611bf457610100808354040283529160200191611c1f565b820191906000526020600020905b815481529060010190602001808311611c0257829003601f168201915b5050505050905084565b6000809054906101000a900473ffffffffffffffffffffffffffffffffffffffff1673ffffffffffffffffffffffffffffffffffffffff163373ffffffffffffffffffffffffffffffffffffffff1614611c8257600080fd5b60036000815480929190600101919050555060405180608001604052808473ffffffffffffffffffffffffffffffffffffffff16815260200160035481526020018381526020018281525060086000600354815260200190815260200160002060008201518160000160006101000a81548173ffffffffffffffffffffffffffffffffffffffff021916908373ffffffffffffffffffffffffffffffffffffffff160217905550602082015181600101556040820151816002019080519060200190611d4f9291906134c3565b506060820151816003019080519060200190611d6c9291906134c3565b50905050505050565b60055481565b6000809054906101000a900473ffffffffffffffffffffffffffffffffffffffff1673ffffffffffffffffffffffffffffffffffffffff163373ffffffffffffffffffffffffffffffffffffffff1614611dd457600080fd5b60056000815480929190600101919050555060405180608001604052808473ffffffffffffffffffffffffffffffffffffffff168152602001600554815260200183815260200182815250600a6000600554815260200190815260200160002060008201518160000160006101000a81548173ffffffffffffffffffffffffffffffffffffffff021916908373ffffffffffffffffffffffffffffffffffffffff160217905550602082015181600101556040820151816002019080519060200190611ea19291906134c3565b506060820151816003019080519060200190611ebe9291906134c3565b50905050505050565b600081118015611ed957506001548111155b611f4b576040517f08c379a00000000000000000000000000000000000000000000000000000000081526004018080602001828103825260138152602001807f496e76616c6964206d65646963696e652049440000000000000000000000000081525060200191505060405180910390fd5b6000611f5633613341565b905060008111611fce576040517f08c379a000000000000000000000000000000000000000000000000000000000815260040180806020018281038252600d8152602001807f524d53206e6f7420666f756e640000000000000000000000000000000000000081525060200191505060405180910390fd5b60006005811115611fdb57fe5b6006600084815260200190815260200160002060070160009054906101000a900460ff16600581111561200a57fe5b1461207d576040517f08c379a000000000000000000000000000000000000000000000000000000000815260040180806020018281038252601d8152602001807f4d65646963696e65206e6f7420696e20696e697469616c20737461676500000081525060200191505060405180910390fd5b80600660008481526020019081526020016000206003018190555060016006600084815260200190815260200160002060070160006101000a81548160ff021916908360058111156120cb57fe5b02179055507f9d6adc52edd85872058729bcfd5d56cdb51b1967e42c7c9950414c6451f4e4fd338383604051808473ffffffffffffffffffffffffffffffffffffffff1673ffffffffffffffffffffffffffffffffffffffff16815260200183815260200182815260200180602001828103825260198152602001807f526177204d6174657269616c20537570706c792053746167650000000000000081525060200194505050505060405180910390a15050565b6000809054906101000a900473ffffffffffffffffffffffffffffffffffffffff1673ffffffffffffffffffffffffffffffffffffffff163373ffffffffffffffffffffffffffffffffffffffff16146121d957600080fd5b60006002541180156121ed57506000600354115b80156121fb57506000600454115b801561220957506000600554115b61221257600080fd5b6001600081548092919060010191905055506040518061010001604052806001548152602001838152602001828152602001600081526020016000815260200160008152602001600081526020016000600581111561226d57fe5b8152506006600060015481526020019081526020016000206000820151816000015560208201518160010190805190602001906122ab9291906134c3565b5060408201518160020190805190602001906122c89291906134c3565b50606082015181600301556080820151816004015560a0820151816005015560c0820151816006015560e08201518160070160006101000a81548160ff0219169083600581111561231557fe5b02179055509050507f3e14add025ec3b419f909a212044009e271001c1358dd282c10f4a5b93ea12d43360015484604051808473ffffffffffffffffffffffffffffffffffffffff1673ffffffffffffffffffffffffffffffffffffffff1681526020018381526020018060200180602001838103835284818151815260200191508051906020019080838360005b838110156123bf5780820151818401526020810190506123a4565b50505050905090810190601f1680156123ec5780820380516001836020036101000a031916815260200191505b50838103825260178152602001807f4d65646963696e6520416464656420746f2053746f636b0000000000000000008152506020019550505050505060405180910390a15050565b60008111801561244657506001548111155b6124b8576040517f08c379a00000000000000000000000000000000000000000000000000000000081526004018080602001828103825260138152602001807f496e76616c6964206d65646963696e652049440000000000000000000000000081525060200191505060405180910390fd5b60006124c3336131bf565b90506000811161253b576040517f08c379a00000000000000000000000000000000000000000000000000000000081526004018080602001828103825260128152602001807f52657461696c6572206e6f7420666f756e64000000000000000000000000000081525060200191505060405180910390fd5b6006600083815260200190815260200160002060060154811461255d57600080fd5b6004600581111561256a57fe5b6006600084815260200190815260200160002060070160009054906101000a900460ff16600581111561259957fe5b1461260c576040517f08c379a000000000000000000000000000000000000000000000000000000000815260040180806020018281038252601c8152602001807f4d65646963696e65206e6f7420696e2072657461696c2073746167650000000081525060200191505060405180910390fd5b60056006600084815260200190815260200160002060070160006101000a81548160ff0219169083600581111561263f57fe5b02179055507f502ed4fe140ca0b6be4e3f0d60c200bd1986fd043e03b24b4935c29e7cbfd91d338383604051808473ffffffffffffffffffffffffffffffffffffffff1673ffffffffffffffffffffffffffffffffffffffff168152602001838152602001828152602001806020018281038252600d8152602001807f4d65646963696e6520536f6c640000000000000000000000000000000000000081525060200194505050505060405180910390a15050565b60008111801561270657506001548111155b612778576040517f08c379a00000000000000000000000000000000000000000000000000000000081526004018080602001828103825260138152602001807f496e76616c6964206d65646963696e652049440000000000000000000000000081525060200191505060405180910390fd5b600061278333613402565b9050600081116127fb576040517f08c379a00000000000000000000000000000000000000000000000000000000081526004018080602001828103825260168152602001807f4d616e756661637475726572206e6f7420666f756e640000000000000000000081525060200191505060405180910390fd5b6001600581111561280857fe5b6006600084815260200190815260200160002060070160009054906101000a900460ff16600581111561283757fe5b1461288d576040517f08c379a00000000000000000000000000000000000000000000000000000000081526004018080602001828103825260298152602001806135696029913960400191505060405180910390fd5b80600660008481526020019081526020016000206004018190555060026006600084815260200190815260200160002060070160006101000a81548160ff021916908360058111156128db57fe5b02179055507f1f8630abc3dc8fc5a56c10d50fa361279acf9259a9f735fcfc36105a2fc71e20338383604051808473ffffffffffffffffffffffffffffffffffffffff1673ffffffffffffffffffffffffffffffffffffffff16815260200183815260200182815260200180602001828103825260138152602001807f4d616e75666163747572696e672053746167650000000000000000000000000081525060200194505050505060405180910390a15050565b60015481565b6000809054906101000a900473ffffffffffffffffffffffffffffffffffffffff1681565b60086020528060005260406000206000915090508060000160009054906101000a900473ffffffffffffffffffffffffffffffffffffffff1690806001015490806002018054600181600116156101000203166002900480601f016020809104026020016040519081016040528092919081815260200182805460018160011615610100020316600290048015612a935780601f10612a6857610100808354040283529160200191612a93565b820191906000526020600020905b815481529060010190602001808311612a7657829003601f168201915b505050505090806003018054600181600116156101000203166002900480601f016020809104026020016040519081016040528092919081815260200182805460018160011615610100020316600290048015612b315780601f10612b0657610100808354040283529160200191612b31565b820191906000526020600020905b815481529060010190602001808311612b1457829003601f168201915b5050505050905084565b60025481565b6060600060015411612bbb576040517f08c379a000000000000000000000000000000000000000000000000000000000815260040180806020018281038252601f8152602001807f4d65646963696e65206e6f7420617661696c61626c6520696e2073746f636b0081525060200191505060405180910390fd5b60006005811115612bc857fe5b6006600084815260200190815260200160002060070160009054906101000a900460ff166005811115612bf757fe5b1415612c3a576040518060400160405280601081526020017f4d65646963696e65204f726465726564000000000000000000000000000000008152509050612eb5565b60016005811115612c4757fe5b6006600084815260200190815260200160002060070160009054906101000a900460ff166005811115612c7657fe5b1415612cb9576040518060400160405280601981526020017f526177204d6174657269616c20537570706c79205374616765000000000000008152509050612eb5565b60026005811115612cc657fe5b6006600084815260200190815260200160002060070160009054906101000a900460ff166005811115612cf557fe5b1415612d38576040518060400160405280601381526020017f4d616e75666163747572696e67205374616765000000000000000000000000008152509050612eb5565b60036005811115612d4557fe5b6006600084815260200190815260200160002060070160009054906101000a900460ff166005811115612d7457fe5b1415612db7576040518060400160405280601281526020017f446973747269627574696f6e20537461676500000000000000000000000000008152509050612eb5565b60046005811115612dc457fe5b6006600084815260200190815260200160002060070160009054906101000a900460ff166005811115612df357fe5b1415612e36576040518060400160405280600c81526020017f52657461696c20537461676500000000000000000000000000000000000000008152509050612eb5565b600580811115612e4257fe5b6006600084815260200190815260200160002060070160009054906101000a900460ff166005811115612e7157fe5b1415612eb4576040518060400160405280600d81526020017f4d65646963696e6520536f6c64000000000000000000000000000000000000008152509050612eb5565b5b919050565b6006602052806000526040600020600091509050806000015490806001018054600181600116156101000203166002900480601f016020809104026020016040519081016040528092919081815260200182805460018160011615610100020316600290048015612f6c5780601f10612f4157610100808354040283529160200191612f6c565b820191906000526020600020905b815481529060010190602001808311612f4f57829003601f168201915b505050505090806002018054600181600116156101000203166002900480601f01602080910402602001604051908101604052809291908181526020018280546001816001161561010002031660029004801561300a5780601f10612fdf5761010080835404028352916020019161300a565b820191906000526020600020905b815481529060010190602001808311612fed57829003601f168201915b5050505050908060030154908060040154908060050154908060060154908060070160009054906101000a900460ff16905088565b60076020528060005260406000206000915090508060000160009054906101000a900473ffffffffffffffffffffffffffffffffffffffff1690806001015490806002018054600181600116156101000203166002900480601f0160208091040260200160405190810160405280929190818152602001828054600181600116156101000203166002900480156131175780601f106130ec57610100808354040283529160200191613117565b820191906000526020600020905b8154815290600101906020018083116130fa57829003601f168201915b505050505090806003018054600181600116156101000203166002900480601f0160208091040260200160405190810160405280929190818152602001828054600181600116156101000203166002900480156131b55780601f1061318a576101008083540402835291602001916131b5565b820191906000526020600020905b81548152906001019060200180831161319857829003601f168201915b5050505050905084565b600080600554116131cf57600080fd5b6000600190505b6005548111613275578273ffffffffffffffffffffffffffffffffffffffff16600a600083815260200190815260200160002060000160009054906101000a900473ffffffffffffffffffffffffffffffffffffffff1673ffffffffffffffffffffffffffffffffffffffff16141561326857600a60008281526020019081526020016000206001015491505061327b565b80806001019150506131d6565b50600090505b919050565b6000806004541161329057600080fd5b6000600190505b6004548111613336578273ffffffffffffffffffffffffffffffffffffffff166009600083815260200190815260200160002060000160009054906101000a900473ffffffffffffffffffffffffffffffffffffffff1673ffffffffffffffffffffffffffffffffffffffff16141561332957600960008281526020019081526020016000206001015491505061333c565b8080600101915050613297565b50600090505b919050565b6000806002541161335157600080fd5b6000600190505b60025481116133f7578273ffffffffffffffffffffffffffffffffffffffff166007600083815260200190815260200160002060000160009054906101000a900473ffffffffffffffffffffffffffffffffffffffff1673ffffffffffffffffffffffffffffffffffffffff1614156133ea5760076000828152602001908152602001600020600101549150506133fd565b8080600101915050613358565b50600090505b919050565b6000806003541161341257600080fd5b6000600190505b60035481116134b8578273ffffffffffffffffffffffffffffffffffffffff166008600083815260200190815260200160002060000160009054906101000a900473ffffffffffffffffffffffffffffffffffffffff1673ffffffffffffffffffffffffffffffffffffffff1614156134ab5760086000828152602001908152602001600020600101549150506134be565b8080600101915050613419565b50600090505b919050565b828054600181600116156101000203166002900490600052602060002090601f016020900481019282601f1061350457805160ff1916838001178555613532565b82800160010185558215613532579182015b82811115613531578251825591602001919060010190613516565b5b50905061353f9190613543565b5090565b61356591905b80821115613561576000816000905550600101613549565b5090565b9056fe4d65646963696e65206e6f7420696e20726177206d6174657269616c20737570706c792073746167654d65646963696e65206e6f7420696e20646973747269627574696f6e2073746167654d65646963696e65206e6f7420696e206d616e7566616374757265207374616765a265627a7a7231582077c881839879fd881684f31874d0d87d3dda0593e68c4b532f5b14a52308efa564736f6c63430005100032",
  "source": "// SPDX-License-Identifier: MIT\r\npragma solidity >=0.4.22 <0.9.0;\r\n\r\ncontract SupplyChain {\r\n    //Smart Contract owner will be the person who deploys the contract only he can authorize various roles like retailer, Manufacturer,etc\r\n    address public Owner;\r\n\r\n    //note this constructor will be called when smart contract will be deployed on blockchain\r\n    constructor() public {\r\n        Owner = msg.sender;\r\n    }\r\n\r\n    //Roles (flow of pharma supply chain)\r\n    // RawMaterialSupplier; //This is where Manufacturer will get raw materials to make medicines\r\n    // Manufacturer;  //Various WHO guidelines should be followed by this person\r\n    // Distributor; //This guy distributes the medicines to retailers\r\n    // Retailer; //Normal customer buys from the retailer\r\n\r\n    //modifier to make sure only the owner is using the function\r\n    modifier onlyByOwner() {\r\n        require(msg.sender == Owner);\r\n        _;\r\n    }\r\n\r\n    //stages of a medicine in pharma supply chain\r\n    enum STAGE {\r\n        Init,\r\n        RawMaterialSupply,\r\n        Manufacture,\r\n        Distribution,\r\n        Retail,\r\n        sold\r\n    }\r\n    //using this we are going to track every single medicine the owner orders\r\n\r\n    //Medicine count\r\n    uint256 public medicineCtr = 0;\r\n    //Raw material supplier count\r\n    uint256 public rmsCtr = 0;\r\n    //Manufacturer count\r\n    uint256 public manCtr = 0;\r\n    //distributor count\r\n    uint256 public disCtr = 0;\r\n    //retailer count\r\n    uint256 public retCtr = 0;\r\n\r\n    //events to show the blocks mined\r\n    event RawMaterialSupplied(address from, uint256 medicineID, uint256 rmsID, string message);\r\n    event MedicineDistributed(address from, uint256 medicineID, uint256 disID, string message);\r\n    event MedicineManufactured(address from, uint256 medicineID, uint256 manID, string message);\r\n    event MedicineRetailed(address from, uint256 medicineID, uint256 retID, string message);\r\n    event MedicineSold(address from, uint256 medicineID, uint256 retID, string message);\r\n    event MedicineAdded(address addedBy, uint256 medicineID, string name, string message);\r\n\r\n    //To store information about the medicine\r\n    struct medicine {\r\n        uint256 id; //unique medicine id\r\n        string name; //name of the medicine\r\n        string description; //about medicine\r\n        uint256 RMSid; //id of the Raw Material supplier for this particular medicine\r\n        uint256 MANid; //id of the Manufacturer for this particular medicine\r\n        uint256 DISid; //id of the distributor for this particular medicine\r\n        uint256 RETid; //id of the retailer for this particular medicine\r\n        STAGE stage; //current medicine stage\r\n    }\r\n\r\n    //To store all the medicines on the blockchain\r\n    mapping(uint256 => medicine) public MedicineStock;\r\n\r\n    //To show status to client applications\r\n    function showStage(uint256 _medicineID)\r\n        public\r\n        view\r\n        returns (string memory)\r\n    {\r\n        require(medicineCtr > 0, \"Medicine not available in stock\");\r\n        if (MedicineStock[_medicineID].stage == STAGE.Init)\r\n            return \"Medicine Ordered\";\r\n        else if (MedicineStock[_medicineID].stage == STAGE.RawMaterialSupply)\r\n            return \"Raw Material Supply Stage\";\r\n        else if (MedicineStock[_medicineID].stage == STAGE.Manufacture)\r\n            return \"Manufacturing Stage\";\r\n        else if (MedicineStock[_medicineID].stage == STAGE.Distribution)\r\n            return \"Distribution Stage\";\r\n        else if (MedicineStock[_medicineID].stage == STAGE.Retail)\r\n            return \"Retail Stage\";\r\n        else if (MedicineStock[_medicineID].stage == STAGE.sold)\r\n            return \"Medicine Sold\";\r\n    }\r\n\r\n    //To store information about raw material supplier\r\n    struct rawMaterialSupplier {\r\n        address addr;\r\n        uint256 id; //supplier id\r\n        string name; //Name of the raw material supplier\r\n        string place; //Place the raw material supplier is based in\r\n    }\r\n\r\n    //To store all the raw material suppliers on the blockchain\r\n    mapping(uint256 => rawMaterialSupplier) public RMS;\r\n\r\n    //To store information about manufacturer\r\n    struct manufacturer {\r\n        address addr;\r\n        uint256 id; //manufacturer id\r\n        string name; //Name of the manufacturer\r\n        string place; //Place the manufacturer is based in\r\n    }\r\n\r\n    //To store all the manufacturers on the blockchain\r\n    mapping(uint256 => manufacturer) public MAN;\r\n\r\n    //To store information about distributor\r\n    struct distributor {\r\n        address addr;\r\n        uint256 id; //distributor id\r\n        string name; //Name of the distributor\r\n        string place; //Place the distributor is based in\r\n    }\r\n\r\n    //To store all the distributors on the blockchain\r\n    mapping(uint256 => distributor) public DIS;\r\n\r\n    //To store information about retailer\r\n    struct retailer {\r\n        address addr;\r\n        uint256 id; //retailer id\r\n        string name; //Name of the retailer\r\n        string place; //Place the retailer is based in\r\n    }\r\n\r\n    //To store all the retailers on the blockchain\r\n    mapping(uint256 => retailer) public RET;\r\n\r\n    //To add raw material suppliers. Only contract owner can add a new raw material supplier\r\n    function addRMS(\r\n        address _address,\r\n        string memory _name,\r\n        string memory _place\r\n    ) public onlyByOwner() {\r\n        rmsCtr++;\r\n        RMS[rmsCtr] = rawMaterialSupplier(_address, rmsCtr, _name, _place);\r\n    }\r\n\r\n    //To add manufacturer. Only contract owner can add a new manufacturer\r\n    function addManufacturer(\r\n        address _address,\r\n        string memory _name,\r\n        string memory _place\r\n    ) public onlyByOwner() {\r\n        manCtr++;\r\n        MAN[manCtr] = manufacturer(_address, manCtr, _name, _place);\r\n    }\r\n\r\n    //To add distributor. Only contract owner can add a new distributor\r\n    function addDistributor(\r\n        address _address,\r\n        string memory _name,\r\n        string memory _place\r\n    ) public onlyByOwner() {\r\n        disCtr++;\r\n        DIS[disCtr] = distributor(_address, disCtr, _name, _place);\r\n    }\r\n\r\n    //To add retailer. Only contract owner can add a new retailer\r\n    function addRetailer(\r\n        address _address,\r\n        string memory _name,\r\n        string memory _place\r\n    ) public onlyByOwner() {\r\n        retCtr++;\r\n        RET[retCtr] = retailer(_address, retCtr, _name, _place);\r\n    }\r\n\r\n    //To supply raw materials from RMS supplier to the manufacturer\r\n    function RMSsupply(uint256 _medicineID) public {\r\n        require(_medicineID > 0 && _medicineID <= medicineCtr, \"Invalid medicine ID\");\r\n        uint256 _id = findRMS(msg.sender);\r\n        require(_id > 0, \"RMS not found\");\r\n        require(MedicineStock[_medicineID].stage == STAGE.Init, \"Medicine not in initial stage\");\r\n        MedicineStock[_medicineID].RMSid = _id;\r\n        MedicineStock[_medicineID].stage = STAGE.RawMaterialSupply;\r\n\r\n        emit RawMaterialSupplied(msg.sender, _medicineID, _id, \"Raw Material Supply Stage\");\r\n    }\r\n\r\n    //To check if RMS is available in the blockchain\r\n    function findRMS(address _address) private view returns (uint256) {\r\n        require(rmsCtr > 0);\r\n        for (uint256 i = 1; i <= rmsCtr; i++) {\r\n            if (RMS[i].addr == _address) return RMS[i].id;\r\n        }\r\n        return 0;\r\n    }\r\n\r\n    //To manufacture medicine\r\n    function Manufacturing(uint256 _medicineID) public {\r\n        require(_medicineID > 0 && _medicineID <= medicineCtr , \"Invalid medicine ID\");\r\n        uint256 _id = findMAN(msg.sender);\r\n        require(_id > 0, \"Manufacturer not found\");\r\n        require(MedicineStock[_medicineID].stage == STAGE.RawMaterialSupply , \"Medicine not in raw material supply stage\");\r\n        MedicineStock[_medicineID].MANid = _id;\r\n        MedicineStock[_medicineID].stage = STAGE.Manufacture;\r\n\r\n        emit MedicineManufactured(msg.sender , _medicineID, _id, \"Manufacturing Stage\");\r\n    }\r\n\r\n    //To check if Manufacturer is available in the blockchain\r\n    function findMAN(address _address) private view returns (uint256) {\r\n        require(manCtr > 0);\r\n        for (uint256 i = 1; i <= manCtr; i++) {\r\n            if (MAN[i].addr == _address) return MAN[i].id;\r\n        }\r\n        return 0;\r\n    }\r\n\r\n    //To supply medicines from Manufacturer to distributor\r\n    function Distribute(uint256 _medicineID) public {\r\n        require(_medicineID > 0 && _medicineID <= medicineCtr , \"Invalid medicine ID\");\r\n        uint256 _id = findDIS(msg.sender);\r\n        require(_id > 0, \"Distributor not found\");\r\n        require(MedicineStock[_medicineID].stage == STAGE.Manufacture   , \"Medicine not in manufacture stage\");\r\n        MedicineStock[_medicineID].DISid = _id;\r\n        MedicineStock[_medicineID].stage = STAGE.Distribution;\r\n\r\n        emit MedicineDistributed(msg.sender, _medicineID, _id, \"Distribution Stage\");\r\n    }\r\n\r\n    //To check if distributor is available in the blockchain\r\n    function findDIS(address _address) private view returns (uint256) {\r\n        require(disCtr > 0);\r\n        for (uint256 i = 1; i <= disCtr; i++) {\r\n            if (DIS[i].addr == _address) return DIS[i].id;\r\n        }\r\n        return 0;\r\n    }\r\n\r\n    //To supply medicines from distributor to retailer\r\n    function Retail(uint256 _medicineID) public {\r\n        require(_medicineID > 0 && _medicineID <= medicineCtr , \"Invalid medicine ID\");\r\n        uint256 _id = findRET(msg.sender);\r\n        require(_id > 0 , \"Retailer not found\");\r\n        require(MedicineStock[_medicineID].stage == STAGE.Distribution  , \"Medicine not in distribution stage\");\r\n        MedicineStock[_medicineID].RETid = _id;\r\n        MedicineStock[_medicineID].stage = STAGE.Retail;\r\n\r\n        emit MedicineRetailed(msg.sender, _medicineID, _id, \"Retail Stage\");\r\n    }\r\n\r\n    //To check if retailer is available in the blockchain\r\n    function findRET(address _address) private view returns (uint256) {\r\n        require(retCtr > 0);\r\n        for (uint256 i = 1; i <= retCtr; i++) {\r\n            if (RET[i].addr == _address) return RET[i].id;\r\n        }\r\n        return 0;\r\n    }\r\n\r\n    //To sell medicines from retailer to consumer\r\n    function sold(uint256 _medicineID) public {\r\n        require(_medicineID > 0 && _medicineID <= medicineCtr , \"Invalid medicine ID\");\r\n        uint256 _id = findRET(msg.sender);\r\n        require(_id > 0 , \"Retailer not found\");\r\n        require(_id == MedicineStock[_medicineID].RETid); //Only correct retailer can mark medicine as sold\r\n        require(MedicineStock[_medicineID].stage == STAGE.Retail , \"Medicine not in retail stage\");\r\n        MedicineStock[_medicineID].stage = STAGE.sold;\r\n\r\n        emit MedicineSold(msg.sender, _medicineID, _id, \"Medicine Sold\");\r\n    }\r\n\r\n    // To add new medicines to the stock\r\n    function addMedicine(string memory _name, string memory _description)\r\n        public\r\n        onlyByOwner()\r\n    {\r\n        require((rmsCtr > 0) && (manCtr > 0) && (disCtr > 0) && (retCtr > 0));\r\n        medicineCtr++;\r\n        MedicineStock[medicineCtr] = medicine(\r\n            medicineCtr,\r\n            _name,\r\n            _description,\r\n            0,\r\n            0,\r\n            0,\r\n            0,\r\n            STAGE.Init\r\n        );\r\n\r\n        emit MedicineAdded(msg.sender, medicineCtr, _name, \"Medicine Added to Stock\");\r\n    }\r\n}\r\n",
  "sourcePath": "D:\\Development\\Supply-Chain-Blockchain\\contracts\\SupplyChain.sol",
  "compiler": {
    "name": "solc",
    "version": "0.5.16+commit.9c3226ce.Emscripten.clang"
  },
  "schemaVersion": "3.4.16",
  "updatedAt": "2025-04-29T08:49:06.404Z",
  "networkType": "ethereum",
  "devdoc": {
    "methods": {}
  },
  "userdoc": {
    "methods": {}
  }
}