{
  "_format": "hh-sol-artifact-1",
  "contractName": "SupplyChain",
  "sourceName": "contracts/SupplyChain.sol",
  "abi": [
    {
      "inputs": [],
      "stateMutability": "nonpayable",
      "type": "constructor"
    },
    {
      "anonymous": false,
      "inputs": [
        {
          "indexed": true,
          "internalType": "address",
          "name": "sender",
          "type": "address"
        },
        {
          "indexed": true,
          "internalType": "uint256",
          "name": "medicineID",
          "type": "uint256"
        },
        {
          "indexed": false,
          "internalType": "string",
          "name": "action",
          "type": "string"
        },
        {
          "indexed": false,
          "internalType": "string",
          "name": "note",
          "type": "string"
        }
      ],
      "name": "LogStageChange",
      "type": "event"
    },
    {
      "anonymous": false,
      "inputs": [
        {
          "indexed": false,
          "internalType": "address",
          "name": "addedBy",
          "type": "address"
        },
        {
          "indexed": false,
          "internalType": "uint256",
          "name": "medicineID",
          "type": "uint256"
        },
        {
          "indexed": false,
          "internalType": "string",
          "name": "name",
          "type": "string"
        },
        {
          "indexed": false,
          "internalType": "string",
          "name": "message",
          "type": "string"
        }
      ],
      "name": "MedicineAdded",
      "type": "event"
    },
    {
      "anonymous": false,
      "inputs": [
        {
          "indexed": false,
          "internalType": "address",
          "name": "from",
          "type": "address"
        },
        {
          "indexed": false,
          "internalType": "uint256",
          "name": "medicineID",
          "type": "uint256"
        },
        {
          "indexed": false,
          "internalType": "uint256",
          "name": "disID",
          "type": "uint256"
        },
        {
          "indexed": false,
          "internalType": "string",
          "name": "message",
          "type": "string"
        }
      ],
      "name": "MedicineDistributed",
      "type": "event"
    },
    {
      "anonymous": false,
      "inputs": [
        {
          "indexed": false,
          "internalType": "address",
          "name": "from",
          "type": "address"
        },
        {
          "indexed": false,
          "internalType": "uint256",
          "name": "medicineID",
          "type": "uint256"
        },
        {
          "indexed": false,
          "internalType": "uint256",
          "name": "manID",
          "type": "uint256"
        },
        {
          "indexed": false,
          "internalType": "string",
          "name": "message",
          "type": "string"
        }
      ],
      "name": "MedicineManufactured",
      "type": "event"
    },
    {
      "anonymous": false,
      "inputs": [
        {
          "indexed": false,
          "internalType": "address",
          "name": "from",
          "type": "address"
        },
        {
          "indexed": false,
          "internalType": "uint256",
          "name": "medicineID",
          "type": "uint256"
        },
        {
          "indexed": false,
          "internalType": "uint256",
          "name": "retID",
          "type": "uint256"
        },
        {
          "indexed": false,
          "internalType": "string",
          "name": "message",
          "type": "string"
        }
      ],
      "name": "MedicineRetailed",
      "type": "event"
    },
    {
      "anonymous": false,
      "inputs": [
        {
          "indexed": false,
          "internalType": "address",
          "name": "from",
          "type": "address"
        },
        {
          "indexed": false,
          "internalType": "uint256",
          "name": "medicineID",
          "type": "uint256"
        },
        {
          "indexed": false,
          "internalType": "uint256",
          "name": "retID",
          "type": "uint256"
        },
        {
          "indexed": false,
          "internalType": "string",
          "name": "message",
          "type": "string"
        }
      ],
      "name": "MedicineSold",
      "type": "event"
    },
    {
      "anonymous": false,
      "inputs": [
        {
          "indexed": false,
          "internalType": "address",
          "name": "from",
          "type": "address"
        },
        {
          "indexed": false,
          "internalType": "uint256",
          "name": "medicineID",
          "type": "uint256"
        },
        {
          "indexed": false,
          "internalType": "uint256",
          "name": "rmsID",
          "type": "uint256"
        },
        {
          "indexed": false,
          "internalType": "string",
          "name": "message",
          "type": "string"
        }
      ],
      "name": "RawMaterialSupplied",
      "type": "event"
    },
    {
      "inputs": [
        {
          "internalType": "uint256",
          "name": "",
          "type": "uint256"
        }
      ],
      "name": "DIS",
      "outputs": [
        {
          "internalType": "address",
          "name": "addr",
          "type": "address"
        },
        {
          "internalType": "uint256",
          "name": "id",
          "type": "uint256"
        },
        {
          "internalType": "string",
          "name": "name",
          "type": "string"
        },
        {
          "internalType": "string",
          "name": "place",
          "type": "string"
        }
      ],
      "stateMutability": "view",
      "type": "function"
    },
    {
      "inputs": [
        {
          "internalType": "uint256",
          "name": "_medicineID",
          "type": "uint256"
        }
      ],
      "name": "Distribute",
      "outputs": [],
      "stateMutability": "nonpayable",
      "type": "function"
    },
    {
      "inputs": [
        {
          "internalType": "uint256",
          "name": "",
          "type": "uint256"
        }
      ],
      "name": "MAN",
      "outputs": [
        {
          "internalType": "address",
          "name": "addr",
          "type": "address"
        },
        {
          "internalType": "uint256",
          "name": "id",
          "type": "uint256"
        },
        {
          "internalType": "string",
          "name": "name",
          "type": "string"
        },
        {
          "internalType": "string",
          "name": "place",
          "type": "string"
        }
      ],
      "stateMutability": "view",
      "type": "function"
    },
    {
      "inputs": [
        {
          "internalType": "uint256",
          "name": "_medicineID",
          "type": "uint256"
        }
      ],
      "name": "Manufacturing",
      "outputs": [],
      "stateMutability": "nonpayable",
      "type": "function"
    },
    {
      "inputs": [
        {
          "internalType": "uint256",
          "name": "",
          "type": "uint256"
        }
      ],
      "name": "MedicineStock",
      "outputs": [
        {
          "internalType": "uint256",
          "name": "id",
          "type": "uint256"
        },
        {
          "internalType": "string",
          "name": "name",
          "type": "string"
        },
        {
          "internalType": "string",
          "name": "description",
          "type": "string"
        },
        {
          "internalType": "uint256",
          "name": "RMSid",
          "type": "uint256"
        },
        {
          "internalType": "uint256",
          "name": "MANid",
          "type": "uint256"
        },
        {
          "internalType": "uint256",
          "name": "DISid",
          "type": "uint256"
        },
        {
          "internalType": "uint256",
          "name": "RETid",
          "type": "uint256"
        },
        {
          "internalType": "enum SupplyChain.STAGE",
          "name": "stage",
          "type": "uint8"
        }
      ],
      "stateMutability": "view",
      "type": "function"
    },
    {
      "inputs": [],
      "name": "Owner",
      "outputs": [
        {
          "internalType": "address",
          "name": "",
          "type": "address"
        }
      ],
      "stateMutability": "view",
      "type": "function"
    },
    {
      "inputs": [
        {
          "internalType": "uint256",
          "name": "",
          "type": "uint256"
        }
      ],
      "name": "RET",
      "outputs": [
        {
          "internalType": "address",
          "name": "addr",
          "type": "address"
        },
        {
          "internalType": "uint256",
          "name": "id",
          "type": "uint256"
        },
        {
          "internalType": "string",
          "name": "name",
          "type": "string"
        },
        {
          "internalType": "string",
          "name": "place",
          "type": "string"
        }
      ],
      "stateMutability": "view",
      "type": "function"
    },
    {
      "inputs": [
        {
          "internalType": "uint256",
          "name": "",
          "type": "uint256"
        }
      ],
      "name": "RMS",
      "outputs": [
        {
          "internalType": "address",
          "name": "addr",
          "type": "address"
        },
        {
          "internalType": "uint256",
          "name": "id",
          "type": "uint256"
        },
        {
          "internalType": "string",
          "name": "name",
          "type": "string"
        },
        {
          "internalType": "string",
          "name": "place",
          "type": "string"
        }
      ],
      "stateMutability": "view",
      "type": "function"
    },
    {
      "inputs": [
        {
          "internalType": "uint256",
          "name": "_medicineID",
          "type": "uint256"
        }
      ],
      "name": "RMSsupply",
      "outputs": [],
      "stateMutability": "nonpayable",
      "type": "function"
    },
    {
      "inputs": [
        {
          "internalType": "uint256",
          "name": "_medicineID",
          "type": "uint256"
        }
      ],
      "name": "Retail",
      "outputs": [],
      "stateMutability": "nonpayable",
      "type": "function"
    },
    {
      "inputs": [
        {
          "internalType": "address",
          "name": "_address",
          "type": "address"
        },
        {
          "internalType": "string",
          "name": "_name",
          "type": "string"
        },
        {
          "internalType": "string",
          "name": "_place",
          "type": "string"
        }
      ],
      "name": "addDistributor",
      "outputs": [],
      "stateMutability": "nonpayable",
      "type": "function"
    },
    {
      "inputs": [
        {
          "internalType": "address",
          "name": "_address",
          "type": "address"
        },
        {
          "internalType": "string",
          "name": "_name",
          "type": "string"
        },
        {
          "internalType": "string",
          "name": "_place",
          "type": "string"
        }
      ],
      "name": "addManufacturer",
      "outputs": [],
      "stateMutability": "nonpayable",
      "type": "function"
    },
    {
      "inputs": [
        {
          "internalType": "string",
          "name": "_name",
          "type": "string"
        },
        {
          "internalType": "string",
          "name": "_description",
          "type": "string"
        }
      ],
      "name": "addMedicine",
      "outputs": [],
      "stateMutability": "nonpayable",
      "type": "function"
    },
    {
      "inputs": [
        {
          "internalType": "address",
          "name": "_address",
          "type": "address"
        },
        {
          "internalType": "string",
          "name": "_name",
          "type": "string"
        },
        {
          "internalType": "string",
          "name": "_place",
          "type": "string"
        }
      ],
      "name": "addRMS",
      "outputs": [],
      "stateMutability": "nonpayable",
      "type": "function"
    },
    {
      "inputs": [
        {
          "internalType": "address",
          "name": "_address",
          "type": "address"
        },
        {
          "internalType": "string",
          "name": "_name",
          "type": "string"
        },
        {
          "internalType": "string",
          "name": "_place",
          "type": "string"
        }
      ],
      "name": "addRetailer",
      "outputs": [],
      "stateMutability": "nonpayable",
      "type": "function"
    },
    {
      "inputs": [],
      "name": "disCtr",
      "outputs": [
        {
          "internalType": "uint256",
          "name": "",
          "type": "uint256"
        }
      ],
      "stateMutability": "view",
      "type": "function"
    },
    {
      "inputs": [],
      "name": "manCtr",
      "outputs": [
        {
          "internalType": "uint256",
          "name": "",
          "type": "uint256"
        }
      ],
      "stateMutability": "view",
      "type": "function"
    },
    {
      "inputs": [],
      "name": "medicineCtr",
      "outputs": [
        {
          "internalType": "uint256",
          "name": "",
          "type": "uint256"
        }
      ],
      "stateMutability": "view",
      "type": "function"
    },
    {
      "inputs": [],
      "name": "retCtr",
      "outputs": [
        {
          "internalType": "uint256",
          "name": "",
          "type": "uint256"
        }
      ],
      "stateMutability": "view",
      "type": "function"
    },
    {
      "inputs": [],
      "name": "rmsCtr",
      "outputs": [
        {
          "internalType": "uint256",
          "name": "",
          "type": "uint256"
        }
      ],
      "stateMutability": "view",
      "type": "function"
    },
    {
      "inputs": [
        {
          "internalType": "uint256",
          "name": "_medicineID",
          "type": "uint256"
        }
      ],
      "name": "showStage",
      "outputs": [
        {
          "internalType": "string",
          "name": "",
          "type": "string"
        }
      ],
      "stateMutability": "view",
      "type": "function"
    },
    {
      "inputs": [
        {
          "internalType": "uint256",
          "name": "_medicineID",
          "type": "uint256"
        }
      ],
      "name": "sold",
      "outputs": [],
      "stateMutability": "nonpayable",
      "type": "function"
    }
  ],
  "bytecode": "0x608060405260006001556000600255600060035560006004556000600555348015602857600080fd5b50336000806101000a81548173ffffffffffffffffffffffffffffffffffffffff021916908373ffffffffffffffffffffffffffffffffffffffff160217905550613893806100786000396000f3fe608060405234801561001057600080fd5b50600436106101425760003560e01c806386c18275116100b8578063b4a99a4e1161007c578063b4a99a4e1461033d578063cc4030691461035b578063dd2863981461038e578063e101a2e0146103ac578063eb1a06b5146103dc578063eef5cb401461041357610142565b806386c18275146102af5780638f4183cc146102cb5780639c03facb146102e7578063a48d335a14610303578063a95f29d91461031f57610142565b8063438e9c4d1161010a578063438e9c4d146101ec5780634def474a1461020a57806359bf286f146102265780636a992c9f146102595780637e43d94d14610275578063857ddb041461029357610142565b80632a4af440146101475780632b0187ac146101635780632b70b08d146101965780632bdb2e6b146101b25780633d753a1c146101d0575b600080fd5b610161600480360381019061015c91906125bc565b610446565b005b61017d6004803603810190610178919061267d565b610589565b60405161018d9493929190612747565b60405180910390f35b6101b060048036038101906101ab91906125bc565b6106e9565b005b6101ba61082c565b6040516101c7919061279a565b60405180910390f35b6101ea60048036038101906101e5919061267d565b610832565b005b6101f4610a43565b604051610201919061279a565b60405180910390f35b610224600480360381019061021f919061267d565b610a49565b005b610240600480360381019061023b919061267d565b610c5a565b6040516102509493929190612747565b60405180910390f35b610273600480360381019061026e91906125bc565b610dba565b005b61027d610efd565b60405161028a919061279a565b60405180910390f35b6102ad60048036038101906102a891906125bc565b610f03565b005b6102c960048036038101906102c4919061267d565b611046565b005b6102e560048036038101906102e091906127b5565b611257565b005b61030160048036038101906102fc919061267d565b611489565b005b61031d6004803603810190610318919061267d565b6116a1565b005b6103276118b2565b604051610334919061279a565b60405180910390f35b6103456118b8565b604051610352919061282d565b60405180910390f35b6103756004803603810190610370919061267d565b6118dc565b6040516103859493929190612747565b60405180910390f35b610396611a3c565b6040516103a3919061279a565b60405180910390f35b6103c660048036038101906103c1919061267d565b611a42565b6040516103d39190612848565b60405180910390f35b6103f660048036038101906103f1919061267d565b611e27565b60405161040a9897969594939291906128e1565b60405180910390f35b61042d6004803603810190610428919061267d565b611f8c565b60405161043d9493929190612747565b60405180910390f35b60008054906101000a900473ffffffffffffffffffffffffffffffffffffffff1673ffffffffffffffffffffffffffffffffffffffff163373ffffffffffffffffffffffffffffffffffffffff161461049e57600080fd5b600460008154809291906104b19061299c565b919050555060405180608001604052808473ffffffffffffffffffffffffffffffffffffffff16815260200160045481526020018381526020018281525060096000600454815260200190815260200160002060008201518160000160006101000a81548173ffffffffffffffffffffffffffffffffffffffff021916908373ffffffffffffffffffffffffffffffffffffffff16021790555060208201518160010155604082015181600201908161056a9190612bf0565b5060608201518160030190816105809190612bf0565b50905050505050565b60096020528060005260406000206000915090508060000160009054906101000a900473ffffffffffffffffffffffffffffffffffffffff16908060010154908060020180546105d890612a13565b80601f016020809104026020016040519081016040528092919081815260200182805461060490612a13565b80156106515780601f1061062657610100808354040283529160200191610651565b820191906000526020600020905b81548152906001019060200180831161063457829003601f168201915b50505050509080600301805461066690612a13565b80601f016020809104026020016040519081016040528092919081815260200182805461069290612a13565b80156106df5780601f106106b4576101008083540402835291602001916106df565b820191906000526020600020905b8154815290600101906020018083116106c257829003601f168201915b5050505050905084565b60008054906101000a900473ffffffffffffffffffffffffffffffffffffffff1673ffffffffffffffffffffffffffffffffffffffff163373ffffffffffffffffffffffffffffffffffffffff161461074157600080fd5b600260008154809291906107549061299c565b919050555060405180608001604052808473ffffffffffffffffffffffffffffffffffffffff16815260200160025481526020018381526020018281525060076000600254815260200190815260200160002060008201518160000160006101000a81548173ffffffffffffffffffffffffffffffffffffffff021916908373ffffffffffffffffffffffffffffffffffffffff16021790555060208201518160010155604082015181600201908161080d9190612bf0565b5060608201518160030190816108239190612bf0565b50905050505050565b60045481565b60008111801561084457506001548111155b610883576040517f08c379a000000000000000000000000000000000000000000000000000000000815260040161087a90612d0e565b60405180910390fd5b600061088e336120ec565b9050600081116108d3576040517f08c379a00000000000000000000000000000000000000000000000000000000081526004016108ca90612d7a565b60405180910390fd5b600360058111156108e7576108e661286a565b5b6006600084815260200190815260200160002060070160009054906101000a900460ff16600581111561091d5761091c61286a565b5b1461095d576040517f08c379a000000000000000000000000000000000000000000000000000000000815260040161095490612e0c565b60405180910390fd5b80600660008481526020019081526020016000206006018190555060046006600084815260200190815260200160002060070160006101000a81548160ff021916908360058111156109b2576109b161286a565b5b02179055507fb13b99d812acd15e27dca15a68de58670afa9e031e82eca3bf39aa06ff6662db3383836040516109ea93929190612e78565b60405180910390a1813373ffffffffffffffffffffffffffffffffffffffff167fa868c2b1f5a49e96144af4139e0b513469c62638f498b5b3fbdfdb8af6f0c6d5604051610a3790612f0e565b60405180910390a35050565b60035481565b600081118015610a5b57506001548111155b610a9a576040517f08c379a0000000000000000000000000000000000000000000000000000000008152600401610a9190612d0e565b60405180910390fd5b6000610aa5336121b2565b905060008111610aea576040517f08c379a0000000000000000000000000000000000000000000000000000000008152600401610ae190612f8d565b60405180910390fd5b60026005811115610afe57610afd61286a565b5b6006600084815260200190815260200160002060070160009054906101000a900460ff166005811115610b3457610b3361286a565b5b14610b74576040517f08c379a0000000000000000000000000000000000000000000000000000000008152600401610b6b9061301f565b60405180910390fd5b80600660008481526020019081526020016000206005018190555060036006600084815260200190815260200160002060070160006101000a81548160ff02191690836005811115610bc957610bc861286a565b5b02179055507f6918dacf76af0c08630f07a7f0b313b912bca4e810d7e6db82705cd385356eaa338383604051610c019392919061308b565b60405180910390a1813373ffffffffffffffffffffffffffffffffffffffff167fa868c2b1f5a49e96144af4139e0b513469c62638f498b5b3fbdfdb8af6f0c6d5604051610c4e90613121565b60405180910390a35050565b600a6020528060005260406000206000915090508060000160009054906101000a900473ffffffffffffffffffffffffffffffffffffffff1690806001015490806002018054610ca990612a13565b80601f0160208091040260200160405190810160405280929190818152602001828054610cd590612a13565b8015610d225780601f10610cf757610100808354040283529160200191610d22565b820191906000526020600020905b815481529060010190602001808311610d0557829003601f168201915b505050505090806003018054610d3790612a13565b80601f0160208091040260200160405190810160405280929190818152602001828054610d6390612a13565b8015610db05780601f10610d8557610100808354040283529160200191610db0565b820191906000526020600020905b815481529060010190602001808311610d9357829003601f168201915b5050505050905084565b60008054906101000a900473ffffffffffffffffffffffffffffffffffffffff1673ffffffffffffffffffffffffffffffffffffffff163373ffffffffffffffffffffffffffffffffffffffff1614610e1257600080fd5b60036000815480929190610e259061299c565b919050555060405180608001604052808473ffffffffffffffffffffffffffffffffffffffff16815260200160035481526020018381526020018281525060086000600354815260200190815260200160002060008201518160000160006101000a81548173ffffffffffffffffffffffffffffffffffffffff021916908373ffffffffffffffffffffffffffffffffffffffff160217905550602082015181600101556040820151816002019081610ede9190612bf0565b506060820151816003019081610ef49190612bf0565b50905050505050565b60055481565b60008054906101000a900473ffffffffffffffffffffffffffffffffffffffff1673ffffffffffffffffffffffffffffffffffffffff163373ffffffffffffffffffffffffffffffffffffffff1614610f5b57600080fd5b60056000815480929190610f6e9061299c565b919050555060405180608001604052808473ffffffffffffffffffffffffffffffffffffffff168152602001600554815260200183815260200182815250600a6000600554815260200190815260200160002060008201518160000160006101000a81548173ffffffffffffffffffffffffffffffffffffffff021916908373ffffffffffffffffffffffffffffffffffffffff1602179055506020820151816001015560408201518160020190816110279190612bf0565b50606082015181600301908161103d9190612bf0565b50905050505050565b60008111801561105857506001548111155b611097576040517f08c379a000000000000000000000000000000000000000000000000000000000815260040161108e90612d0e565b60405180910390fd5b60006110a233612278565b9050600081116110e7576040517f08c379a00000000000000000000000000000000000000000000000000000000081526004016110de906131a0565b60405180910390fd5b600060058111156110fb576110fa61286a565b5b6006600084815260200190815260200160002060070160009054906101000a900460ff1660058111156111315761113061286a565b5b14611171576040517f08c379a00000000000000000000000000000000000000000000000000000000081526004016111689061320c565b60405180910390fd5b80600660008481526020019081526020016000206003018190555060016006600084815260200190815260200160002060070160006101000a81548160ff021916908360058111156111c6576111c561286a565b5b02179055507f9d6adc52edd85872058729bcfd5d56cdb51b1967e42c7c9950414c6451f4e4fd3383836040516111fe93929190613278565b60405180910390a1813373ffffffffffffffffffffffffffffffffffffffff167fa868c2b1f5a49e96144af4139e0b513469c62638f498b5b3fbdfdb8af6f0c6d560405161124b9061330e565b60405180910390a35050565b60008054906101000a900473ffffffffffffffffffffffffffffffffffffffff1673ffffffffffffffffffffffffffffffffffffffff163373ffffffffffffffffffffffffffffffffffffffff16146112af57600080fd5b60006002541180156112c357506000600354115b80156112d157506000600454115b80156112df57506000600554115b6112e857600080fd5b600160008154809291906112fb9061299c565b9190505550604051806101000160405280600154815260200183815260200182815260200160008152602001600081526020016000815260200160008152602001600060058111156113505761134f61286a565b5b8152506006600060015481526020019081526020016000206000820151816000015560208201518160010190816113879190612bf0565b50604082015181600201908161139d9190612bf0565b50606082015181600301556080820151816004015560a0820151816005015560c0820151816006015560e08201518160070160006101000a81548160ff021916908360058111156113f1576113f061286a565b5b02179055509050507f3e14add025ec3b419f909a212044009e271001c1358dd282c10f4a5b93ea12d4336001548460405161142e9392919061338d565b60405180910390a16001543373ffffffffffffffffffffffffffffffffffffffff167fa868c2b1f5a49e96144af4139e0b513469c62638f498b5b3fbdfdb8af6f0c6d560405161147d9061342a565b60405180910390a35050565b60008111801561149b57506001548111155b6114da576040517f08c379a00000000000000000000000000000000000000000000000000000000081526004016114d190612d0e565b60405180910390fd5b60006114e5336120ec565b90506000811161152a576040517f08c379a000000000000000000000000000000000000000000000000000000000815260040161152190612d7a565b60405180910390fd5b6006600083815260200190815260200160002060060154811461154c57600080fd5b600460058111156115605761155f61286a565b5b6006600084815260200190815260200160002060070160009054906101000a900460ff1660058111156115965761159561286a565b5b146115d6576040517f08c379a00000000000000000000000000000000000000000000000000000000081526004016115cd906134a9565b60405180910390fd5b60056006600084815260200190815260200160002060070160006101000a81548160ff021916908360058111156116105761160f61286a565b5b02179055507f502ed4fe140ca0b6be4e3f0d60c200bd1986fd043e03b24b4935c29e7cbfd91d33838360405161164893929190613515565b60405180910390a1813373ffffffffffffffffffffffffffffffffffffffff167fa868c2b1f5a49e96144af4139e0b513469c62638f498b5b3fbdfdb8af6f0c6d5604051611695906135ab565b60405180910390a35050565b6000811180156116b357506001548111155b6116f2576040517f08c379a00000000000000000000000000000000000000000000000000000000081526004016116e990612d0e565b60405180910390fd5b60006116fd3361233e565b905060008111611742576040517f08c379a00000000000000000000000000000000000000000000000000000000081526004016117399061362a565b60405180910390fd5b600160058111156117565761175561286a565b5b6006600084815260200190815260200160002060070160009054906101000a900460ff16600581111561178c5761178b61286a565b5b146117cc576040517f08c379a00000000000000000000000000000000000000000000000000000000081526004016117c3906136bc565b60405180910390fd5b80600660008481526020019081526020016000206004018190555060026006600084815260200190815260200160002060070160006101000a81548160ff021916908360058111156118215761182061286a565b5b02179055507f1f8630abc3dc8fc5a56c10d50fa361279acf9259a9f735fcfc36105a2fc71e2033838360405161185993929190613728565b60405180910390a1813373ffffffffffffffffffffffffffffffffffffffff167fa868c2b1f5a49e96144af4139e0b513469c62638f498b5b3fbdfdb8af6f0c6d56040516118a6906137be565b60405180910390a35050565b60015481565b60008054906101000a900473ffffffffffffffffffffffffffffffffffffffff1681565b60086020528060005260406000206000915090508060000160009054906101000a900473ffffffffffffffffffffffffffffffffffffffff169080600101549080600201805461192b90612a13565b80601f016020809104026020016040519081016040528092919081815260200182805461195790612a13565b80156119a45780601f10611979576101008083540402835291602001916119a4565b820191906000526020600020905b81548152906001019060200180831161198757829003601f168201915b5050505050908060030180546119b990612a13565b80601f01602080910402602001604051908101604052809291908181526020018280546119e590612a13565b8015611a325780601f10611a0757610100808354040283529160200191611a32565b820191906000526020600020905b815481529060010190602001808311611a1557829003601f168201915b5050505050905084565b60025481565b6060600060015411611a89576040517f08c379a0000000000000000000000000000000000000000000000000000000008152600401611a809061383d565b60405180910390fd5b600082118015611a9b57506001548211155b611ada576040517f08c379a0000000000000000000000000000000000000000000000000000000008152600401611ad190612d0e565b60405180910390fd5b60006005811115611aee57611aed61286a565b5b6006600084815260200190815260200160002060070160009054906101000a900460ff166005811115611b2457611b2361286a565b5b03611b66576040518060400160405280601081526020017f4d65646963696e65204f726465726564000000000000000000000000000000008152509050611e22565b60016005811115611b7a57611b7961286a565b5b6006600084815260200190815260200160002060070160009054906101000a900460ff166005811115611bb057611baf61286a565b5b03611bf2576040518060400160405280601981526020017f526177204d6174657269616c20537570706c79205374616765000000000000008152509050611e22565b60026005811115611c0657611c0561286a565b5b6006600084815260200190815260200160002060070160009054906101000a900460ff166005811115611c3c57611c3b61286a565b5b03611c7e576040518060400160405280601381526020017f4d616e75666163747572696e67205374616765000000000000000000000000008152509050611e22565b60036005811115611c9257611c9161286a565b5b6006600084815260200190815260200160002060070160009054906101000a900460ff166005811115611cc857611cc761286a565b5b03611d0a576040518060400160405280601281526020017f446973747269627574696f6e20537461676500000000000000000000000000008152509050611e22565b60046005811115611d1e57611d1d61286a565b5b6006600084815260200190815260200160002060070160009054906101000a900460ff166005811115611d5457611d5361286a565b5b03611d96576040518060400160405280600c81526020017f52657461696c20537461676500000000000000000000000000000000000000008152509050611e22565b600580811115611da957611da861286a565b5b6006600084815260200190815260200160002060070160009054906101000a900460ff166005811115611ddf57611dde61286a565b5b03611e21576040518060400160405280600d81526020017f4d65646963696e6520536f6c64000000000000000000000000000000000000008152509050611e22565b5b919050565b6006602052806000526040600020600091509050806000015490806001018054611e5090612a13565b80601f0160208091040260200160405190810160405280929190818152602001828054611e7c90612a13565b8015611ec95780601f10611e9e57610100808354040283529160200191611ec9565b820191906000526020600020905b815481529060010190602001808311611eac57829003601f168201915b505050505090806002018054611ede90612a13565b80601f0160208091040260200160405190810160405280929190818152602001828054611f0a90612a13565b8015611f575780601f10611f2c57610100808354040283529160200191611f57565b820191906000526020600020905b815481529060010190602001808311611f3a57829003601f168201915b5050505050908060030154908060040154908060050154908060060154908060070160009054906101000a900460ff16905088565b60076020528060005260406000206000915090508060000160009054906101000a900473ffffffffffffffffffffffffffffffffffffffff1690806001015490806002018054611fdb90612a13565b80601f016020809104026020016040519081016040528092919081815260200182805461200790612a13565b80156120545780601f1061202957610100808354040283529160200191612054565b820191906000526020600020905b81548152906001019060200180831161203757829003601f168201915b50505050509080600301805461206990612a13565b80601f016020809104026020016040519081016040528092919081815260200182805461209590612a13565b80156120e25780601f106120b7576101008083540402835291602001916120e2565b820191906000526020600020905b8154815290600101906020018083116120c557829003601f168201915b5050505050905084565b600080600554116120fc57600080fd5b6000600190505b60055481116121a7578273ffffffffffffffffffffffffffffffffffffffff16600a600083815260200190815260200160002060000160009054906101000a900473ffffffffffffffffffffffffffffffffffffffff1673ffffffffffffffffffffffffffffffffffffffff160361219457600a6000828152602001908152602001600020600101549150506121ad565b808061219f9061299c565b915050612103565b50600090505b919050565b600080600454116121c257600080fd5b6000600190505b600454811161226d578273ffffffffffffffffffffffffffffffffffffffff166009600083815260200190815260200160002060000160009054906101000a900473ffffffffffffffffffffffffffffffffffffffff1673ffffffffffffffffffffffffffffffffffffffff160361225a576009600082815260200190815260200160002060010154915050612273565b80806122659061299c565b9150506121c9565b50600090505b919050565b6000806002541161228857600080fd5b6000600190505b6002548111612333578273ffffffffffffffffffffffffffffffffffffffff166007600083815260200190815260200160002060000160009054906101000a900473ffffffffffffffffffffffffffffffffffffffff1673ffffffffffffffffffffffffffffffffffffffff1603612320576007600082815260200190815260200160002060010154915050612339565b808061232b9061299c565b91505061228f565b50600090505b919050565b6000806003541161234e57600080fd5b6000600190505b60035481116123f9578273ffffffffffffffffffffffffffffffffffffffff166008600083815260200190815260200160002060000160009054906101000a900473ffffffffffffffffffffffffffffffffffffffff1673ffffffffffffffffffffffffffffffffffffffff16036123e65760086000828152602001908152602001600020600101549150506123ff565b80806123f19061299c565b915050612355565b50600090505b919050565b6000604051905090565b600080fd5b600080fd5b600073ffffffffffffffffffffffffffffffffffffffff82169050919050565b600061244382612418565b9050919050565b61245381612438565b811461245e57600080fd5b50565b6000813590506124708161244a565b92915050565b600080fd5b600080fd5b6000601f19601f8301169050919050565b7f4e487b7100000000000000000000000000000000000000000000000000000000600052604160045260246000fd5b6124c982612480565b810181811067ffffffffffffffff821117156124e8576124e7612491565b5b80604052505050565b60006124fb612404565b905061250782826124c0565b919050565b600067ffffffffffffffff82111561252757612526612491565b5b61253082612480565b9050602081019050919050565b82818337600083830152505050565b600061255f61255a8461250c565b6124f1565b90508281526020810184848401111561257b5761257a61247b565b5b61258684828561253d565b509392505050565b600082601f8301126125a3576125a2612476565b5b81356125b384826020860161254c565b91505092915050565b6000806000606084860312156125d5576125d461240e565b5b60006125e386828701612461565b935050602084013567ffffffffffffffff81111561260457612603612413565b5b6126108682870161258e565b925050604084013567ffffffffffffffff81111561263157612630612413565b5b61263d8682870161258e565b9150509250925092565b6000819050919050565b61265a81612647565b811461266557600080fd5b50565b60008135905061267781612651565b92915050565b6000602082840312156126935761269261240e565b5b60006126a184828501612668565b91505092915050565b6126b381612438565b82525050565b6126c281612647565b82525050565b600081519050919050565b600082825260208201905092915050565b60005b838110156127025780820151818401526020810190506126e7565b60008484015250505050565b6000612719826126c8565b61272381856126d3565b93506127338185602086016126e4565b61273c81612480565b840191505092915050565b600060808201905061275c60008301876126aa565b61276960208301866126b9565b818103604083015261277b818561270e565b9050818103606083015261278f818461270e565b905095945050505050565b60006020820190506127af60008301846126b9565b92915050565b600080604083850312156127cc576127cb61240e565b5b600083013567ffffffffffffffff8111156127ea576127e9612413565b5b6127f68582860161258e565b925050602083013567ffffffffffffffff81111561281757612816612413565b5b6128238582860161258e565b9150509250929050565b600060208201905061284260008301846126aa565b92915050565b60006020820190508181036000830152612862818461270e565b905092915050565b7f4e487b7100000000000000000000000000000000000000000000000000000000600052602160045260246000fd5b600681106128aa576128a961286a565b5b50565b60008190506128bb82612899565b919050565b60006128cb826128ad565b9050919050565b6128db816128c0565b82525050565b6000610100820190506128f7600083018b6126b9565b8181036020830152612909818a61270e565b9050818103604083015261291d818961270e565b905061292c60608301886126b9565b61293960808301876126b9565b61294660a08301866126b9565b61295360c08301856126b9565b61296060e08301846128d2565b9998505050505050505050565b7f4e487b7100000000000000000000000000000000000000000000000000000000600052601160045260246000fd5b60006129a782612647565b91507fffffffffffffffffffffffffffffffffffffffffffffffffffffffffffffffff82036129d9576129d861296d565b5b600182019050919050565b7f4e487b7100000000000000000000000000000000000000000000000000000000600052602260045260246000fd5b60006002820490506001821680612a2b57607f821691505b602082108103612a3e57612a3d6129e4565b5b50919050565b60008190508160005260206000209050919050565b60006020601f8301049050919050565b600082821b905092915050565b600060088302612aa67fffffffffffffffffffffffffffffffffffffffffffffffffffffffffffffffff82612a69565b612ab08683612a69565b95508019841693508086168417925050509392505050565b6000819050919050565b6000612aed612ae8612ae384612647565b612ac8565b612647565b9050919050565b6000819050919050565b612b0783612ad2565b612b1b612b1382612af4565b848454612a76565b825550505050565b600090565b612b30612b23565b612b3b818484612afe565b505050565b5b81811015612b5f57612b54600082612b28565b600181019050612b41565b5050565b601f821115612ba457612b7581612a44565b612b7e84612a59565b81016020851015612b8d578190505b612ba1612b9985612a59565b830182612b40565b50505b505050565b600082821c905092915050565b6000612bc760001984600802612ba9565b1980831691505092915050565b6000612be08383612bb6565b9150826002028217905092915050565b612bf9826126c8565b67ffffffffffffffff811115612c1257612c11612491565b5b612c1c8254612a13565b612c27828285612b63565b600060209050601f831160018114612c5a5760008415612c48578287015190505b612c528582612bd4565b865550612cba565b601f198416612c6886612a44565b60005b82811015612c9057848901518255600182019150602085019450602081019050612c6b565b86831015612cad5784890151612ca9601f891682612bb6565b8355505b6001600288020188555050505b505050505050565b7f496e76616c6964206d65646963696e6520494400000000000000000000000000600082015250565b6000612cf86013836126d3565b9150612d0382612cc2565b602082019050919050565b60006020820190508181036000830152612d2781612ceb565b9050919050565b7f52657461696c6572206e6f7420666f756e640000000000000000000000000000600082015250565b6000612d646012836126d3565b9150612d6f82612d2e565b602082019050919050565b60006020820190508181036000830152612d9381612d57565b9050919050565b7f4d65646963696e65206e6f7420696e20646973747269627574696f6e2073746160008201527f6765000000000000000000000000000000000000000000000000000000000000602082015250565b6000612df66022836126d3565b9150612e0182612d9a565b604082019050919050565b60006020820190508181036000830152612e2581612de9565b9050919050565b7f52657461696c2053746167650000000000000000000000000000000000000000600082015250565b6000612e62600c836126d3565b9150612e6d82612e2c565b602082019050919050565b6000608082019050612e8d60008301866126aa565b612e9a60208301856126b9565b612ea760408301846126b9565b8181036060830152612eb881612e55565b9050949350505050565b7f52657461696c0000000000000000000000000000000000000000000000000000600082015250565b6000612ef86006836126d3565b9150612f0382612ec2565b602082019050919050565b60006040820190508181036000830152612f2781612eeb565b90508181036020830152612f3a81612e55565b9050919050565b7f4469737472696275746f72206e6f7420666f756e640000000000000000000000600082015250565b6000612f776015836126d3565b9150612f8282612f41565b602082019050919050565b60006020820190508181036000830152612fa681612f6a565b9050919050565b7f4d65646963696e65206e6f7420696e206d616e7566616374757265207374616760008201527f6500000000000000000000000000000000000000000000000000000000000000602082015250565b60006130096021836126d3565b915061301482612fad565b604082019050919050565b6000602082019050818103600083015261303881612ffc565b9050919050565b7f446973747269627574696f6e2053746167650000000000000000000000000000600082015250565b60006130756012836126d3565b91506130808261303f565b602082019050919050565b60006080820190506130a060008301866126aa565b6130ad60208301856126b9565b6130ba60408301846126b9565b81810360608301526130cb81613068565b9050949350505050565b7f446973747269627574696f6e0000000000000000000000000000000000000000600082015250565b600061310b600c836126d3565b9150613116826130d5565b602082019050919050565b6000604082019050818103600083015261313a816130fe565b9050818103602083015261314d81613068565b9050919050565b7f524d53206e6f7420666f756e6400000000000000000000000000000000000000600082015250565b600061318a600d836126d3565b915061319582613154565b602082019050919050565b600060208201905081810360008301526131b98161317d565b9050919050565b7f4d65646963696e65206e6f7420696e20696e697469616c207374616765000000600082015250565b60006131f6601d836126d3565b9150613201826131c0565b602082019050919050565b60006020820190508181036000830152613225816131e9565b9050919050565b7f526177204d6174657269616c20537570706c7920537461676500000000000000600082015250565b60006132626019836126d3565b915061326d8261322c565b602082019050919050565b600060808201905061328d60008301866126aa565b61329a60208301856126b9565b6132a760408301846126b9565b81810360608301526132b881613255565b9050949350505050565b7f524d5320537570706c7900000000000000000000000000000000000000000000600082015250565b60006132f8600a836126d3565b9150613303826132c2565b602082019050919050565b60006040820190508181036000830152613327816132eb565b9050818103602083015261333a81613255565b9050919050565b7f4d65646963696e6520416464656420746f2053746f636b000000000000000000600082015250565b60006133776017836126d3565b915061338282613341565b602082019050919050565b60006080820190506133a260008301866126aa565b6133af60208301856126b9565b81810360408301526133c1818461270e565b905081810360608301526133d48161336a565b9050949350505050565b7f4164646564000000000000000000000000000000000000000000000000000000600082015250565b60006134146005836126d3565b915061341f826133de565b602082019050919050565b6000604082019050818103600083015261344381613407565b905081810360208301526134568161336a565b9050919050565b7f4d65646963696e65206e6f7420696e2072657461696c20737461676500000000600082015250565b6000613493601c836126d3565b915061349e8261345d565b602082019050919050565b600060208201905081810360008301526134c281613486565b9050919050565b7f4d65646963696e6520536f6c6400000000000000000000000000000000000000600082015250565b60006134ff600d836126d3565b915061350a826134c9565b602082019050919050565b600060808201905061352a60008301866126aa565b61353760208301856126b9565b61354460408301846126b9565b8181036060830152613555816134f2565b9050949350505050565b7f536f6c6400000000000000000000000000000000000000000000000000000000600082015250565b60006135956004836126d3565b91506135a08261355f565b602082019050919050565b600060408201905081810360008301526135c481613588565b905081810360208301526135d7816134f2565b9050919050565b7f4d616e756661637475726572206e6f7420666f756e6400000000000000000000600082015250565b60006136146016836126d3565b915061361f826135de565b602082019050919050565b6000602082019050818103600083015261364381613607565b9050919050565b7f4d65646963696e65206e6f7420696e20726177206d6174657269616c2073757060008201527f706c792073746167650000000000000000000000000000000000000000000000602082015250565b60006136a66029836126d3565b91506136b18261364a565b604082019050919050565b600060208201905081810360008301526136d581613699565b9050919050565b7f4d616e75666163747572696e6720537461676500000000000000000000000000600082015250565b60006137126013836126d3565b915061371d826136dc565b602082019050919050565b600060808201905061373d60008301866126aa565b61374a60208301856126b9565b61375760408301846126b9565b818103606083015261376881613705565b9050949350505050565b7f4d616e75666163747572696e6700000000000000000000000000000000000000600082015250565b60006137a8600d836126d3565b91506137b382613772565b602082019050919050565b600060408201905081810360008301526137d78161379b565b905081810360208301526137ea81613705565b9050919050565b7f4d65646963696e65206e6f7420617661696c61626c6520696e2073746f636b00600082015250565b6000613827601f836126d3565b9150613832826137f1565b602082019050919050565b600060208201905081810360008301526138568161381a565b905091905056fea2646970667358221220509ce5f79635bbaa30faec37f92170da9442d5aadfbc7b2995fae2128774fa8464736f6c634300081c0033",
  "linkReferences": {},
  "deployedLinkReferences": {}
}