{
  "_format": "hh-sol-artifact-1",
  "contractName": "SupplyChain",
  "sourceName": "contracts/SupplyChain.sol",
  "abi": [
    {
      "inputs": [],
      "stateMutability": "nonpayable",
      "type": "constructor"
    },
    {
      "anonymous": false,
      "inputs": [
        {
          "indexed": true,
          "internalType": "address",
          "name": "sender",
          "type": "address"
        },
        {
          "indexed": true,
          "internalType": "uint256",
          "name": "medicineID",
          "type": "uint256"
        },
        {
          "indexed": false,
          "internalType": "string",
          "name": "action",
          "type": "string"
        },
        {
          "indexed": false,
          "internalType": "string",
          "name": "note",
          "type": "string"
        }
      ],
      "name": "LogStageChange",
      "type": "event"
    },
    {
      "anonymous": false,
      "inputs": [
        {
          "indexed": false,
          "internalType": "address",
          "name": "addedBy",
          "type": "address"
        },
        {
          "indexed": false,
          "internalType": "uint256",
          "name": "medicineID",
          "type": "uint256"
        },
        {
          "indexed": false,
          "internalType": "string",
          "name": "name",
          "type": "string"
        },
        {
          "indexed": false,
          "internalType": "string",
          "name": "message",
          "type": "string"
        }
      ],
      "name": "MedicineAdded",
      "type": "event"
    },
    {
      "anonymous": false,
      "inputs": [
        {
          "indexed": false,
          "internalType": "address",
          "name": "from",
          "type": "address"
        },
        {
          "indexed": false,
          "internalType": "uint256",
          "name": "medicineID",
          "type": "uint256"
        },
        {
          "indexed": false,
          "internalType": "uint256",
          "name": "disID",
          "type": "uint256"
        },
        {
          "indexed": false,
          "internalType": "string",
          "name": "message",
          "type": "string"
        }
      ],
      "name": "MedicineDistributed",
      "type": "event"
    },
    {
      "anonymous": false,
      "inputs": [
        {
          "indexed": false,
          "internalType": "address",
          "name": "from",
          "type": "address"
        },
        {
          "indexed": false,
          "internalType": "uint256",
          "name": "medicineID",
          "type": "uint256"
        },
        {
          "indexed": false,
          "internalType": "uint256",
          "name": "manID",
          "type": "uint256"
        },
        {
          "indexed": false,
          "internalType": "string",
          "name": "message",
          "type": "string"
        }
      ],
      "name": "MedicineManufactured",
      "type": "event"
    },
    {
      "anonymous": false,
      "inputs": [
        {
          "indexed": false,
          "internalType": "address",
          "name": "from",
          "type": "address"
        },
        {
          "indexed": false,
          "internalType": "uint256",
          "name": "medicineID",
          "type": "uint256"
        },
        {
          "indexed": false,
          "internalType": "uint256",
          "name": "retID",
          "type": "uint256"
        },
        {
          "indexed": false,
          "internalType": "string",
          "name": "message",
          "type": "string"
        }
      ],
      "name": "MedicineRetailed",
      "type": "event"
    },
    {
      "anonymous": false,
      "inputs": [
        {
          "indexed": false,
          "internalType": "address",
          "name": "from",
          "type": "address"
        },
        {
          "indexed": false,
          "internalType": "uint256",
          "name": "medicineID",
          "type": "uint256"
        },
        {
          "indexed": false,
          "internalType": "uint256",
          "name": "retID",
          "type": "uint256"
        },
        {
          "indexed": false,
          "internalType": "string",
          "name": "message",
          "type": "string"
        }
      ],
      "name": "MedicineSold",
      "type": "event"
    },
    {
      "anonymous": false,
      "inputs": [
        {
          "indexed": false,
          "internalType": "address",
          "name": "from",
          "type": "address"
        },
        {
          "indexed": false,
          "internalType": "uint256",
          "name": "medicineID",
          "type": "uint256"
        },
        {
          "indexed": false,
          "internalType": "uint256",
          "name": "rmsID",
          "type": "uint256"
        },
        {
          "indexed": false,
          "internalType": "string",
          "name": "message",
          "type": "string"
        }
      ],
      "name": "RawMaterialSupplied",
      "type": "event"
    },
    {
      "inputs": [
        {
          "internalType": "uint256",
          "name": "",
          "type": "uint256"
        }
      ],
      "name": "DIS",
      "outputs": [
        {
          "internalType": "address",
          "name": "addr",
          "type": "address"
        },
        {
          "internalType": "uint256",
          "name": "id",
          "type": "uint256"
        },
        {
          "internalType": "string",
          "name": "name",
          "type": "string"
        },
        {
          "internalType": "string",
          "name": "place",
          "type": "string"
        }
      ],
      "stateMutability": "view",
      "type": "function"
    },
    {
      "inputs": [
        {
          "internalType": "uint256",
          "name": "_medicineID",
          "type": "uint256"
        }
      ],
      "name": "Distribute",
      "outputs": [],
      "stateMutability": "nonpayable",
      "type": "function"
    },
    {
      "inputs": [
        {
          "internalType": "uint256",
          "name": "",
          "type": "uint256"
        }
      ],
      "name": "MAN",
      "outputs": [
        {
          "internalType": "address",
          "name": "addr",
          "type": "address"
        },
        {
          "internalType": "uint256",
          "name": "id",
          "type": "uint256"
        },
        {
          "internalType": "string",
          "name": "name",
          "type": "string"
        },
        {
          "internalType": "string",
          "name": "place",
          "type": "string"
        }
      ],
      "stateMutability": "view",
      "type": "function"
    },
    {
      "inputs": [
        {
          "internalType": "uint256",
          "name": "_medicineID",
          "type": "uint256"
        }
      ],
      "name": "Manufacturing",
      "outputs": [],
      "stateMutability": "nonpayable",
      "type": "function"
    },
    {
      "inputs": [
        {
          "internalType": "uint256",
          "name": "",
          "type": "uint256"
        }
      ],
      "name": "MedicineStock",
      "outputs": [
        {
          "internalType": "uint256",
          "name": "id",
          "type": "uint256"
        },
        {
          "internalType": "string",
          "name": "name",
          "type": "string"
        },
        {
          "internalType": "string",
          "name": "description",
          "type": "string"
        },
        {
          "internalType": "uint256",
          "name": "RMSid",
          "type": "uint256"
        },
        {
          "internalType": "uint256",
          "name": "MANid",
          "type": "uint256"
        },
        {
          "internalType": "uint256",
          "name": "DISid",
          "type": "uint256"
        },
        {
          "internalType": "uint256",
          "name": "RETid",
          "type": "uint256"
        },
        {
          "internalType": "enum SupplyChain.STAGE",
          "name": "stage",
          "type": "uint8"
        }
      ],
      "stateMutability": "view",
      "type": "function"
    },
    {
      "inputs": [],
      "name": "Owner",
      "outputs": [
        {
          "internalType": "address",
          "name": "",
          "type": "address"
        }
      ],
      "stateMutability": "view",
      "type": "function"
    },
    {
      "inputs": [
        {
          "internalType": "uint256",
          "name": "",
          "type": "uint256"
        }
      ],
      "name": "RET",
      "outputs": [
        {
          "internalType": "address",
          "name": "addr",
          "type": "address"
        },
        {
          "internalType": "uint256",
          "name": "id",
          "type": "uint256"
        },
        {
          "internalType": "string",
          "name": "name",
          "type": "string"
        },
        {
          "internalType": "string",
          "name": "place",
          "type": "string"
        }
      ],
      "stateMutability": "view",
      "type": "function"
    },
    {
      "inputs": [
        {
          "internalType": "uint256",
          "name": "",
          "type": "uint256"
        }
      ],
      "name": "RMS",
      "outputs": [
        {
          "internalType": "address",
          "name": "addr",
          "type": "address"
        },
        {
          "internalType": "uint256",
          "name": "id",
          "type": "uint256"
        },
        {
          "internalType": "string",
          "name": "name",
          "type": "string"
        },
        {
          "internalType": "string",
          "name": "place",
          "type": "string"
        }
      ],
      "stateMutability": "view",
      "type": "function"
    },
    {
      "inputs": [
        {
          "internalType": "uint256",
          "name": "_medicineID",
          "type": "uint256"
        }
      ],
      "name": "RMSsupply",
      "outputs": [],
      "stateMutability": "nonpayable",
      "type": "function"
    },
    {
      "inputs": [
        {
          "internalType": "uint256",
          "name": "_medicineID",
          "type": "uint256"
        }
      ],
      "name": "Retail",
      "outputs": [],
      "stateMutability": "nonpayable",
      "type": "function"
    },
    {
      "inputs": [
        {
          "internalType": "address",
          "name": "_address",
          "type": "address"
        },
        {
          "internalType": "string",
          "name": "_name",
          "type": "string"
        },
        {
          "internalType": "string",
          "name": "_place",
          "type": "string"
        }
      ],
      "name": "addDistributor",
      "outputs": [],
      "stateMutability": "nonpayable",
      "type": "function"
    },
    {
      "inputs": [
        {
          "internalType": "address",
          "name": "_address",
          "type": "address"
        },
        {
          "internalType": "string",
          "name": "_name",
          "type": "string"
        },
        {
          "internalType": "string",
          "name": "_place",
          "type": "string"
        }
      ],
      "name": "addManufacturer",
      "outputs": [],
      "stateMutability": "nonpayable",
      "type": "function"
    },
    {
      "inputs": [
        {
          "internalType": "string",
          "name": "_name",
          "type": "string"
        },
        {
          "internalType": "string",
          "name": "_description",
          "type": "string"
        }
      ],
      "name": "addMedicine",
      "outputs": [],
      "stateMutability": "nonpayable",
      "type": "function"
    },
    {
      "inputs": [
        {
          "internalType": "address",
          "name": "_address",
          "type": "address"
        },
        {
          "internalType": "string",
          "name": "_name",
          "type": "string"
        },
        {
          "internalType": "string",
          "name": "_place",
          "type": "string"
        }
      ],
      "name": "addRMS",
      "outputs": [],
      "stateMutability": "nonpayable",
      "type": "function"
    },
    {
      "inputs": [
        {
          "internalType": "address",
          "name": "_address",
          "type": "address"
        },
        {
          "internalType": "string",
          "name": "_name",
          "type": "string"
        },
        {
          "internalType": "string",
          "name": "_place",
          "type": "string"
        }
      ],
      "name": "addRetailer",
      "outputs": [],
      "stateMutability": "nonpayable",
      "type": "function"
    },
    {
      "inputs": [],
      "name": "disCtr",
      "outputs": [
        {
          "internalType": "uint256",
          "name": "",
          "type": "uint256"
        }
      ],
      "stateMutability": "view",
      "type": "function"
    },
    {
      "inputs": [],
      "name": "getOwner",
      "outputs": [
        {
          "internalType": "address",
          "name": "",
          "type": "address"
        }
      ],
      "stateMutability": "view",
      "type": "function"
    },
    {
      "inputs": [],
      "name": "manCtr",
      "outputs": [
        {
          "internalType": "uint256",
          "name": "",
          "type": "uint256"
        }
      ],
      "stateMutability": "view",
      "type": "function"
    },
    {
      "inputs": [],
      "name": "medicineCtr",
      "outputs": [
        {
          "internalType": "uint256",
          "name": "",
          "type": "uint256"
        }
      ],
      "stateMutability": "view",
      "type": "function"
    },
    {
      "inputs": [],
      "name": "retCtr",
      "outputs": [
        {
          "internalType": "uint256",
          "name": "",
          "type": "uint256"
        }
      ],
      "stateMutability": "view",
      "type": "function"
    },
    {
      "inputs": [],
      "name": "rmsCtr",
      "outputs": [
        {
          "internalType": "uint256",
          "name": "",
          "type": "uint256"
        }
      ],
      "stateMutability": "view",
      "type": "function"
    },
    {
      "inputs": [
        {
          "internalType": "uint256",
          "name": "_medicineID",
          "type": "uint256"
        }
      ],
      "name": "showStage",
      "outputs": [
        {
          "internalType": "string",
          "name": "",
          "type": "string"
        }
      ],
      "stateMutability": "view",
      "type": "function"
    },
    {
      "inputs": [
        {
          "internalType": "uint256",
          "name": "_medicineID",
          "type": "uint256"
        }
      ],
      "name": "sold",
      "outputs": [],
      "stateMutability": "nonpayable",
      "type": "function"
    }
  ],
  "bytecode": "0x608060405260006001556000600255600060035560006004556000600555348015602857600080fd5b50336000806101000a81548173ffffffffffffffffffffffffffffffffffffffff021916908373ffffffffffffffffffffffffffffffffffffffff16021790555061398b806100786000396000f3fe608060405234801561001057600080fd5b506004361061014d5760003560e01c806386c18275116100c3578063b4a99a4e1161007c578063b4a99a4e14610366578063cc40306914610384578063dd286398146103b7578063e101a2e0146103d5578063eb1a06b514610405578063eef5cb401461043c5761014d565b806386c18275146102ba578063893d20e8146102d65780638f4183cc146102f45780639c03facb14610310578063a48d335a1461032c578063a95f29d9146103485761014d565b8063438e9c4d11610115578063438e9c4d146101f75780634def474a1461021557806359bf286f146102315780636a992c9f146102645780637e43d94d14610280578063857ddb041461029e5761014d565b80632a4af440146101525780632b0187ac1461016e5780632b70b08d146101a15780632bdb2e6b146101bd5780633d753a1c146101db575b600080fd5b61016c60048036038101906101679190612648565b61046f565b005b61018860048036038101906101839190612709565b6105b2565b60405161019894939291906127d3565b60405180910390f35b6101bb60048036038101906101b69190612648565b610712565b005b6101c5610855565b6040516101d29190612826565b60405180910390f35b6101f560048036038101906101f09190612709565b61085b565b005b6101ff610a6c565b60405161020c9190612826565b60405180910390f35b61022f600480360381019061022a9190612709565b610a72565b005b61024b60048036038101906102469190612709565b610c83565b60405161025b94939291906127d3565b60405180910390f35b61027e60048036038101906102799190612648565b610de3565b005b610288610f26565b6040516102959190612826565b60405180910390f35b6102b860048036038101906102b39190612648565b610f2c565b005b6102d460048036038101906102cf9190612709565b61106f565b005b6102de611280565b6040516102eb9190612841565b60405180910390f35b61030e6004803603810190610309919061285c565b6112a9565b005b61032a60048036038101906103259190612709565b6114db565b005b61034660048036038101906103419190612709565b6116f3565b005b610350611904565b60405161035d9190612826565b60405180910390f35b61036e61190a565b60405161037b9190612841565b60405180910390f35b61039e60048036038101906103999190612709565b61192e565b6040516103ae94939291906127d3565b60405180910390f35b6103bf611a8e565b6040516103cc9190612826565b60405180910390f35b6103ef60048036038101906103ea9190612709565b611a94565b6040516103fc91906128d4565b60405180910390f35b61041f600480360381019061041a9190612709565b611eb3565b60405161043398979695949392919061296d565b60405180910390f35b61045660048036038101906104519190612709565b612018565b60405161046694939291906127d3565b60405180910390f35b60008054906101000a900473ffffffffffffffffffffffffffffffffffffffff1673ffffffffffffffffffffffffffffffffffffffff163373ffffffffffffffffffffffffffffffffffffffff16146104c757600080fd5b600460008154809291906104da90612a28565b919050555060405180608001604052808473ffffffffffffffffffffffffffffffffffffffff16815260200160045481526020018381526020018281525060096000600454815260200190815260200160002060008201518160000160006101000a81548173ffffffffffffffffffffffffffffffffffffffff021916908373ffffffffffffffffffffffffffffffffffffffff1602179055506020820151816001015560408201518160020190816105939190612c7c565b5060608201518160030190816105a99190612c7c565b50905050505050565b60096020528060005260406000206000915090508060000160009054906101000a900473ffffffffffffffffffffffffffffffffffffffff169080600101549080600201805461060190612a9f565b80601f016020809104026020016040519081016040528092919081815260200182805461062d90612a9f565b801561067a5780601f1061064f5761010080835404028352916020019161067a565b820191906000526020600020905b81548152906001019060200180831161065d57829003601f168201915b50505050509080600301805461068f90612a9f565b80601f01602080910402602001604051908101604052809291908181526020018280546106bb90612a9f565b80156107085780601f106106dd57610100808354040283529160200191610708565b820191906000526020600020905b8154815290600101906020018083116106eb57829003601f168201915b5050505050905084565b60008054906101000a900473ffffffffffffffffffffffffffffffffffffffff1673ffffffffffffffffffffffffffffffffffffffff163373ffffffffffffffffffffffffffffffffffffffff161461076a57600080fd5b6002600081548092919061077d90612a28565b919050555060405180608001604052808473ffffffffffffffffffffffffffffffffffffffff16815260200160025481526020018381526020018281525060076000600254815260200190815260200160002060008201518160000160006101000a81548173ffffffffffffffffffffffffffffffffffffffff021916908373ffffffffffffffffffffffffffffffffffffffff1602179055506020820151816001015560408201518160020190816108369190612c7c565b50606082015181600301908161084c9190612c7c565b50905050505050565b60045481565b60008111801561086d57506001548111155b6108ac576040517f08c379a00000000000000000000000000000000000000000000000000000000081526004016108a390612d9a565b60405180910390fd5b60006108b733612178565b9050600081116108fc576040517f08c379a00000000000000000000000000000000000000000000000000000000081526004016108f390612e06565b60405180910390fd5b600360058111156109105761090f6128f6565b5b6006600084815260200190815260200160002060070160009054906101000a900460ff166005811115610946576109456128f6565b5b14610986576040517f08c379a000000000000000000000000000000000000000000000000000000000815260040161097d90612e98565b60405180910390fd5b80600660008481526020019081526020016000206006018190555060046006600084815260200190815260200160002060070160006101000a81548160ff021916908360058111156109db576109da6128f6565b5b02179055507fb13b99d812acd15e27dca15a68de58670afa9e031e82eca3bf39aa06ff6662db338383604051610a1393929190612f04565b60405180910390a1813373ffffffffffffffffffffffffffffffffffffffff167fa868c2b1f5a49e96144af4139e0b513469c62638f498b5b3fbdfdb8af6f0c6d5604051610a6090612f9a565b60405180910390a35050565b60035481565b600081118015610a8457506001548111155b610ac3576040517f08c379a0000000000000000000000000000000000000000000000000000000008152600401610aba90612d9a565b60405180910390fd5b6000610ace3361223e565b905060008111610b13576040517f08c379a0000000000000000000000000000000000000000000000000000000008152600401610b0a90613019565b60405180910390fd5b60026005811115610b2757610b266128f6565b5b6006600084815260200190815260200160002060070160009054906101000a900460ff166005811115610b5d57610b5c6128f6565b5b14610b9d576040517f08c379a0000000000000000000000000000000000000000000000000000000008152600401610b94906130ab565b60405180910390fd5b80600660008481526020019081526020016000206005018190555060036006600084815260200190815260200160002060070160006101000a81548160ff02191690836005811115610bf257610bf16128f6565b5b02179055507f6918dacf76af0c08630f07a7f0b313b912bca4e810d7e6db82705cd385356eaa338383604051610c2a93929190613117565b60405180910390a1813373ffffffffffffffffffffffffffffffffffffffff167fa868c2b1f5a49e96144af4139e0b513469c62638f498b5b3fbdfdb8af6f0c6d5604051610c77906131ad565b60405180910390a35050565b600a6020528060005260406000206000915090508060000160009054906101000a900473ffffffffffffffffffffffffffffffffffffffff1690806001015490806002018054610cd290612a9f565b80601f0160208091040260200160405190810160405280929190818152602001828054610cfe90612a9f565b8015610d4b5780601f10610d2057610100808354040283529160200191610d4b565b820191906000526020600020905b815481529060010190602001808311610d2e57829003601f168201915b505050505090806003018054610d6090612a9f565b80601f0160208091040260200160405190810160405280929190818152602001828054610d8c90612a9f565b8015610dd95780601f10610dae57610100808354040283529160200191610dd9565b820191906000526020600020905b815481529060010190602001808311610dbc57829003601f168201915b5050505050905084565b60008054906101000a900473ffffffffffffffffffffffffffffffffffffffff1673ffffffffffffffffffffffffffffffffffffffff163373ffffffffffffffffffffffffffffffffffffffff1614610e3b57600080fd5b60036000815480929190610e4e90612a28565b919050555060405180608001604052808473ffffffffffffffffffffffffffffffffffffffff16815260200160035481526020018381526020018281525060086000600354815260200190815260200160002060008201518160000160006101000a81548173ffffffffffffffffffffffffffffffffffffffff021916908373ffffffffffffffffffffffffffffffffffffffff160217905550602082015181600101556040820151816002019081610f079190612c7c565b506060820151816003019081610f1d9190612c7c565b50905050505050565b60055481565b60008054906101000a900473ffffffffffffffffffffffffffffffffffffffff1673ffffffffffffffffffffffffffffffffffffffff163373ffffffffffffffffffffffffffffffffffffffff1614610f8457600080fd5b60056000815480929190610f9790612a28565b919050555060405180608001604052808473ffffffffffffffffffffffffffffffffffffffff168152602001600554815260200183815260200182815250600a6000600554815260200190815260200160002060008201518160000160006101000a81548173ffffffffffffffffffffffffffffffffffffffff021916908373ffffffffffffffffffffffffffffffffffffffff1602179055506020820151816001015560408201518160020190816110509190612c7c565b5060608201518160030190816110669190612c7c565b50905050505050565b60008111801561108157506001548111155b6110c0576040517f08c379a00000000000000000000000000000000000000000000000000000000081526004016110b790612d9a565b60405180910390fd5b60006110cb33612304565b905060008111611110576040517f08c379a00000000000000000000000000000000000000000000000000000000081526004016111079061322c565b60405180910390fd5b60006005811115611124576111236128f6565b5b6006600084815260200190815260200160002060070160009054906101000a900460ff16600581111561115a576111596128f6565b5b1461119a576040517f08c379a000000000000000000000000000000000000000000000000000000000815260040161119190613298565b60405180910390fd5b80600660008481526020019081526020016000206003018190555060016006600084815260200190815260200160002060070160006101000a81548160ff021916908360058111156111ef576111ee6128f6565b5b02179055507f9d6adc52edd85872058729bcfd5d56cdb51b1967e42c7c9950414c6451f4e4fd33838360405161122793929190613304565b60405180910390a1813373ffffffffffffffffffffffffffffffffffffffff167fa868c2b1f5a49e96144af4139e0b513469c62638f498b5b3fbdfdb8af6f0c6d56040516112749061339a565b60405180910390a35050565b60008060009054906101000a900473ffffffffffffffffffffffffffffffffffffffff16905090565b60008054906101000a900473ffffffffffffffffffffffffffffffffffffffff1673ffffffffffffffffffffffffffffffffffffffff163373ffffffffffffffffffffffffffffffffffffffff161461130157600080fd5b600060025411801561131557506000600354115b801561132357506000600454115b801561133157506000600554115b61133a57600080fd5b6001600081548092919061134d90612a28565b9190505550604051806101000160405280600154815260200183815260200182815260200160008152602001600081526020016000815260200160008152602001600060058111156113a2576113a16128f6565b5b8152506006600060015481526020019081526020016000206000820151816000015560208201518160010190816113d99190612c7c565b5060408201518160020190816113ef9190612c7c565b50606082015181600301556080820151816004015560a0820151816005015560c0820151816006015560e08201518160070160006101000a81548160ff02191690836005811115611443576114426128f6565b5b02179055509050507f3e14add025ec3b419f909a212044009e271001c1358dd282c10f4a5b93ea12d4336001548460405161148093929190613419565b60405180910390a16001543373ffffffffffffffffffffffffffffffffffffffff167fa868c2b1f5a49e96144af4139e0b513469c62638f498b5b3fbdfdb8af6f0c6d56040516114cf906134b6565b60405180910390a35050565b6000811180156114ed57506001548111155b61152c576040517f08c379a000000000000000000000000000000000000000000000000000000000815260040161152390612d9a565b60405180910390fd5b600061153733612178565b90506000811161157c576040517f08c379a000000000000000000000000000000000000000000000000000000000815260040161157390612e06565b60405180910390fd5b6006600083815260200190815260200160002060060154811461159e57600080fd5b600460058111156115b2576115b16128f6565b5b6006600084815260200190815260200160002060070160009054906101000a900460ff1660058111156115e8576115e76128f6565b5b14611628576040517f08c379a000000000000000000000000000000000000000000000000000000000815260040161161f90613535565b60405180910390fd5b60056006600084815260200190815260200160002060070160006101000a81548160ff02191690836005811115611662576116616128f6565b5b02179055507f502ed4fe140ca0b6be4e3f0d60c200bd1986fd043e03b24b4935c29e7cbfd91d33838360405161169a939291906135a1565b60405180910390a1813373ffffffffffffffffffffffffffffffffffffffff167fa868c2b1f5a49e96144af4139e0b513469c62638f498b5b3fbdfdb8af6f0c6d56040516116e790613637565b60405180910390a35050565b60008111801561170557506001548111155b611744576040517f08c379a000000000000000000000000000000000000000000000000000000000815260040161173b90612d9a565b60405180910390fd5b600061174f336123ca565b905060008111611794576040517f08c379a000000000000000000000000000000000000000000000000000000000815260040161178b906136b6565b60405180910390fd5b600160058111156117a8576117a76128f6565b5b6006600084815260200190815260200160002060070160009054906101000a900460ff1660058111156117de576117dd6128f6565b5b1461181e576040517f08c379a000000000000000000000000000000000000000000000000000000000815260040161181590613748565b60405180910390fd5b80600660008481526020019081526020016000206004018190555060026006600084815260200190815260200160002060070160006101000a81548160ff02191690836005811115611873576118726128f6565b5b02179055507f1f8630abc3dc8fc5a56c10d50fa361279acf9259a9f735fcfc36105a2fc71e203383836040516118ab939291906137b4565b60405180910390a1813373ffffffffffffffffffffffffffffffffffffffff167fa868c2b1f5a49e96144af4139e0b513469c62638f498b5b3fbdfdb8af6f0c6d56040516118f89061384a565b60405180910390a35050565b60015481565b60008054906101000a900473ffffffffffffffffffffffffffffffffffffffff1681565b60086020528060005260406000206000915090508060000160009054906101000a900473ffffffffffffffffffffffffffffffffffffffff169080600101549080600201805461197d90612a9f565b80601f01602080910402602001604051908101604052809291908181526020018280546119a990612a9f565b80156119f65780601f106119cb576101008083540402835291602001916119f6565b820191906000526020600020905b8154815290600101906020018083116119d957829003601f168201915b505050505090806003018054611a0b90612a9f565b80601f0160208091040260200160405190810160405280929190818152602001828054611a3790612a9f565b8015611a845780601f10611a5957610100808354040283529160200191611a84565b820191906000526020600020905b815481529060010190602001808311611a6757829003601f168201915b5050505050905084565b60025481565b6060600060015411611adb576040517f08c379a0000000000000000000000000000000000000000000000000000000008152600401611ad2906138c9565b60405180910390fd5b600082118015611aed57506001548211155b611b2c576040517f08c379a0000000000000000000000000000000000000000000000000000000008152600401611b2390612d9a565b60405180910390fd5b60006005811115611b4057611b3f6128f6565b5b6006600084815260200190815260200160002060070160009054906101000a900460ff166005811115611b7657611b756128f6565b5b03611bb8576040518060400160405280601081526020017f4d65646963696e65204f726465726564000000000000000000000000000000008152509050611eae565b60016005811115611bcc57611bcb6128f6565b5b6006600084815260200190815260200160002060070160009054906101000a900460ff166005811115611c0257611c016128f6565b5b03611c44576040518060400160405280601981526020017f526177204d6174657269616c20537570706c79205374616765000000000000008152509050611eae565b60026005811115611c5857611c576128f6565b5b6006600084815260200190815260200160002060070160009054906101000a900460ff166005811115611c8e57611c8d6128f6565b5b03611cd0576040518060400160405280601381526020017f4d616e75666163747572696e67205374616765000000000000000000000000008152509050611eae565b60036005811115611ce457611ce36128f6565b5b6006600084815260200190815260200160002060070160009054906101000a900460ff166005811115611d1a57611d196128f6565b5b03611d5c576040518060400160405280601281526020017f446973747269627574696f6e20537461676500000000000000000000000000008152509050611eae565b60046005811115611d7057611d6f6128f6565b5b6006600084815260200190815260200160002060070160009054906101000a900460ff166005811115611da657611da56128f6565b5b03611de8576040518060400160405280600c81526020017f52657461696c20537461676500000000000000000000000000000000000000008152509050611eae565b600580811115611dfb57611dfa6128f6565b5b6006600084815260200190815260200160002060070160009054906101000a900460ff166005811115611e3157611e306128f6565b5b03611e73576040518060400160405280600d81526020017f4d65646963696e6520536f6c64000000000000000000000000000000000000008152509050611eae565b6040517f08c379a0000000000000000000000000000000000000000000000000000000008152600401611ea590613935565b60405180910390fd5b919050565b6006602052806000526040600020600091509050806000015490806001018054611edc90612a9f565b80601f0160208091040260200160405190810160405280929190818152602001828054611f0890612a9f565b8015611f555780601f10611f2a57610100808354040283529160200191611f55565b820191906000526020600020905b815481529060010190602001808311611f3857829003601f168201915b505050505090806002018054611f6a90612a9f565b80601f0160208091040260200160405190810160405280929190818152602001828054611f9690612a9f565b8015611fe35780601f10611fb857610100808354040283529160200191611fe3565b820191906000526020600020905b815481529060010190602001808311611fc657829003601f168201915b5050505050908060030154908060040154908060050154908060060154908060070160009054906101000a900460ff16905088565b60076020528060005260406000206000915090508060000160009054906101000a900473ffffffffffffffffffffffffffffffffffffffff169080600101549080600201805461206790612a9f565b80601f016020809104026020016040519081016040528092919081815260200182805461209390612a9f565b80156120e05780601f106120b5576101008083540402835291602001916120e0565b820191906000526020600020905b8154815290600101906020018083116120c357829003601f168201915b5050505050908060030180546120f590612a9f565b80601f016020809104026020016040519081016040528092919081815260200182805461212190612a9f565b801561216e5780601f106121435761010080835404028352916020019161216e565b820191906000526020600020905b81548152906001019060200180831161215157829003601f168201915b5050505050905084565b6000806005541161218857600080fd5b6000600190505b6005548111612233578273ffffffffffffffffffffffffffffffffffffffff16600a600083815260200190815260200160002060000160009054906101000a900473ffffffffffffffffffffffffffffffffffffffff1673ffffffffffffffffffffffffffffffffffffffff160361222057600a600082815260200190815260200160002060010154915050612239565b808061222b90612a28565b91505061218f565b50600090505b919050565b6000806004541161224e57600080fd5b6000600190505b60045481116122f9578273ffffffffffffffffffffffffffffffffffffffff166009600083815260200190815260200160002060000160009054906101000a900473ffffffffffffffffffffffffffffffffffffffff1673ffffffffffffffffffffffffffffffffffffffff16036122e65760096000828152602001908152602001600020600101549150506122ff565b80806122f190612a28565b915050612255565b50600090505b919050565b6000806002541161231457600080fd5b6000600190505b60025481116123bf578273ffffffffffffffffffffffffffffffffffffffff166007600083815260200190815260200160002060000160009054906101000a900473ffffffffffffffffffffffffffffffffffffffff1673ffffffffffffffffffffffffffffffffffffffff16036123ac5760076000828152602001908152602001600020600101549150506123c5565b80806123b790612a28565b91505061231b565b50600090505b919050565b600080600354116123da57600080fd5b6000600190505b6003548111612485578273ffffffffffffffffffffffffffffffffffffffff166008600083815260200190815260200160002060000160009054906101000a900473ffffffffffffffffffffffffffffffffffffffff1673ffffffffffffffffffffffffffffffffffffffff160361247257600860008281526020019081526020016000206001015491505061248b565b808061247d90612a28565b9150506123e1565b50600090505b919050565b6000604051905090565b600080fd5b600080fd5b600073ffffffffffffffffffffffffffffffffffffffff82169050919050565b60006124cf826124a4565b9050919050565b6124df816124c4565b81146124ea57600080fd5b50565b6000813590506124fc816124d6565b92915050565b600080fd5b600080fd5b6000601f19601f8301169050919050565b7f4e487b7100000000000000000000000000000000000000000000000000000000600052604160045260246000fd5b6125558261250c565b810181811067ffffffffffffffff821117156125745761257361251d565b5b80604052505050565b6000612587612490565b9050612593828261254c565b919050565b600067ffffffffffffffff8211156125b3576125b261251d565b5b6125bc8261250c565b9050602081019050919050565b82818337600083830152505050565b60006125eb6125e684612598565b61257d565b90508281526020810184848401111561260757612606612507565b5b6126128482856125c9565b509392505050565b600082601f83011261262f5761262e612502565b5b813561263f8482602086016125d8565b91505092915050565b6000806000606084860312156126615761266061249a565b5b600061266f868287016124ed565b935050602084013567ffffffffffffffff8111156126905761268f61249f565b5b61269c8682870161261a565b925050604084013567ffffffffffffffff8111156126bd576126bc61249f565b5b6126c98682870161261a565b9150509250925092565b6000819050919050565b6126e6816126d3565b81146126f157600080fd5b50565b600081359050612703816126dd565b92915050565b60006020828403121561271f5761271e61249a565b5b600061272d848285016126f4565b91505092915050565b61273f816124c4565b82525050565b61274e816126d3565b82525050565b600081519050919050565b600082825260208201905092915050565b60005b8381101561278e578082015181840152602081019050612773565b60008484015250505050565b60006127a582612754565b6127af818561275f565b93506127bf818560208601612770565b6127c88161250c565b840191505092915050565b60006080820190506127e86000830187612736565b6127f56020830186612745565b8181036040830152612807818561279a565b9050818103606083015261281b818461279a565b905095945050505050565b600060208201905061283b6000830184612745565b92915050565b60006020820190506128566000830184612736565b92915050565b600080604083850312156128735761287261249a565b5b600083013567ffffffffffffffff8111156128915761289061249f565b5b61289d8582860161261a565b925050602083013567ffffffffffffffff8111156128be576128bd61249f565b5b6128ca8582860161261a565b9150509250929050565b600060208201905081810360008301526128ee818461279a565b905092915050565b7f4e487b7100000000000000000000000000000000000000000000000000000000600052602160045260246000fd5b60068110612936576129356128f6565b5b50565b600081905061294782612925565b919050565b600061295782612939565b9050919050565b6129678161294c565b82525050565b600061010082019050612983600083018b612745565b8181036020830152612995818a61279a565b905081810360408301526129a9818961279a565b90506129b86060830188612745565b6129c56080830187612745565b6129d260a0830186612745565b6129df60c0830185612745565b6129ec60e083018461295e565b9998505050505050505050565b7f4e487b7100000000000000000000000000000000000000000000000000000000600052601160045260246000fd5b6000612a33826126d3565b91507fffffffffffffffffffffffffffffffffffffffffffffffffffffffffffffffff8203612a6557612a646129f9565b5b600182019050919050565b7f4e487b7100000000000000000000000000000000000000000000000000000000600052602260045260246000fd5b60006002820490506001821680612ab757607f821691505b602082108103612aca57612ac9612a70565b5b50919050565b60008190508160005260206000209050919050565b60006020601f8301049050919050565b600082821b905092915050565b600060088302612b327fffffffffffffffffffffffffffffffffffffffffffffffffffffffffffffffff82612af5565b612b3c8683612af5565b95508019841693508086168417925050509392505050565b6000819050919050565b6000612b79612b74612b6f846126d3565b612b54565b6126d3565b9050919050565b6000819050919050565b612b9383612b5e565b612ba7612b9f82612b80565b848454612b02565b825550505050565b600090565b612bbc612baf565b612bc7818484612b8a565b505050565b5b81811015612beb57612be0600082612bb4565b600181019050612bcd565b5050565b601f821115612c3057612c0181612ad0565b612c0a84612ae5565b81016020851015612c19578190505b612c2d612c2585612ae5565b830182612bcc565b50505b505050565b600082821c905092915050565b6000612c5360001984600802612c35565b1980831691505092915050565b6000612c6c8383612c42565b9150826002028217905092915050565b612c8582612754565b67ffffffffffffffff811115612c9e57612c9d61251d565b5b612ca88254612a9f565b612cb3828285612bef565b600060209050601f831160018114612ce65760008415612cd4578287015190505b612cde8582612c60565b865550612d46565b601f198416612cf486612ad0565b60005b82811015612d1c57848901518255600182019150602085019450602081019050612cf7565b86831015612d395784890151612d35601f891682612c42565b8355505b6001600288020188555050505b505050505050565b7f496e76616c6964206d65646963696e6520494400000000000000000000000000600082015250565b6000612d8460138361275f565b9150612d8f82612d4e565b602082019050919050565b60006020820190508181036000830152612db381612d77565b9050919050565b7f52657461696c6572206e6f7420666f756e640000000000000000000000000000600082015250565b6000612df060128361275f565b9150612dfb82612dba565b602082019050919050565b60006020820190508181036000830152612e1f81612de3565b9050919050565b7f4d65646963696e65206e6f7420696e20646973747269627574696f6e2073746160008201527f6765000000000000000000000000000000000000000000000000000000000000602082015250565b6000612e8260228361275f565b9150612e8d82612e26565b604082019050919050565b60006020820190508181036000830152612eb181612e75565b9050919050565b7f52657461696c2053746167650000000000000000000000000000000000000000600082015250565b6000612eee600c8361275f565b9150612ef982612eb8565b602082019050919050565b6000608082019050612f196000830186612736565b612f266020830185612745565b612f336040830184612745565b8181036060830152612f4481612ee1565b9050949350505050565b7f52657461696c0000000000000000000000000000000000000000000000000000600082015250565b6000612f8460068361275f565b9150612f8f82612f4e565b602082019050919050565b60006040820190508181036000830152612fb381612f77565b90508181036020830152612fc681612ee1565b9050919050565b7f4469737472696275746f72206e6f7420666f756e640000000000000000000000600082015250565b600061300360158361275f565b915061300e82612fcd565b602082019050919050565b6000602082019050818103600083015261303281612ff6565b9050919050565b7f4d65646963696e65206e6f7420696e206d616e7566616374757265207374616760008201527f6500000000000000000000000000000000000000000000000000000000000000602082015250565b600061309560218361275f565b91506130a082613039565b604082019050919050565b600060208201905081810360008301526130c481613088565b9050919050565b7f446973747269627574696f6e2053746167650000000000000000000000000000600082015250565b600061310160128361275f565b915061310c826130cb565b602082019050919050565b600060808201905061312c6000830186612736565b6131396020830185612745565b6131466040830184612745565b8181036060830152613157816130f4565b9050949350505050565b7f446973747269627574696f6e0000000000000000000000000000000000000000600082015250565b6000613197600c8361275f565b91506131a282613161565b602082019050919050565b600060408201905081810360008301526131c68161318a565b905081810360208301526131d9816130f4565b9050919050565b7f524d53206e6f7420666f756e6400000000000000000000000000000000000000600082015250565b6000613216600d8361275f565b9150613221826131e0565b602082019050919050565b6000602082019050818103600083015261324581613209565b9050919050565b7f4d65646963696e65206e6f7420696e20696e697469616c207374616765000000600082015250565b6000613282601d8361275f565b915061328d8261324c565b602082019050919050565b600060208201905081810360008301526132b181613275565b9050919050565b7f526177204d6174657269616c20537570706c7920537461676500000000000000600082015250565b60006132ee60198361275f565b91506132f9826132b8565b602082019050919050565b60006080820190506133196000830186612736565b6133266020830185612745565b6133336040830184612745565b8181036060830152613344816132e1565b9050949350505050565b7f524d5320537570706c7900000000000000000000000000000000000000000000600082015250565b6000613384600a8361275f565b915061338f8261334e565b602082019050919050565b600060408201905081810360008301526133b381613377565b905081810360208301526133c6816132e1565b9050919050565b7f4d65646963696e6520416464656420746f2053746f636b000000000000000000600082015250565b600061340360178361275f565b915061340e826133cd565b602082019050919050565b600060808201905061342e6000830186612736565b61343b6020830185612745565b818103604083015261344d818461279a565b90508181036060830152613460816133f6565b9050949350505050565b7f4164646564000000000000000000000000000000000000000000000000000000600082015250565b60006134a060058361275f565b91506134ab8261346a565b602082019050919050565b600060408201905081810360008301526134cf81613493565b905081810360208301526134e2816133f6565b9050919050565b7f4d65646963696e65206e6f7420696e2072657461696c20737461676500000000600082015250565b600061351f601c8361275f565b915061352a826134e9565b602082019050919050565b6000602082019050818103600083015261354e81613512565b9050919050565b7f4d65646963696e6520536f6c6400000000000000000000000000000000000000600082015250565b600061358b600d8361275f565b915061359682613555565b602082019050919050565b60006080820190506135b66000830186612736565b6135c36020830185612745565b6135d06040830184612745565b81810360608301526135e18161357e565b9050949350505050565b7f536f6c6400000000000000000000000000000000000000000000000000000000600082015250565b600061362160048361275f565b915061362c826135eb565b602082019050919050565b6000604082019050818103600083015261365081613614565b905081810360208301526136638161357e565b9050919050565b7f4d616e756661637475726572206e6f7420666f756e6400000000000000000000600082015250565b60006136a060168361275f565b91506136ab8261366a565b602082019050919050565b600060208201905081810360008301526136cf81613693565b9050919050565b7f4d65646963696e65206e6f7420696e20726177206d6174657269616c2073757060008201527f706c792073746167650000000000000000000000000000000000000000000000602082015250565b600061373260298361275f565b915061373d826136d6565b604082019050919050565b6000602082019050818103600083015261376181613725565b9050919050565b7f4d616e75666163747572696e6720537461676500000000000000000000000000600082015250565b600061379e60138361275f565b91506137a982613768565b602082019050919050565b60006080820190506137c96000830186612736565b6137d66020830185612745565b6137e36040830184612745565b81810360608301526137f481613791565b9050949350505050565b7f4d616e75666163747572696e6700000000000000000000000000000000000000600082015250565b6000613834600d8361275f565b915061383f826137fe565b602082019050919050565b6000604082019050818103600083015261386381613827565b9050818103602083015261387681613791565b9050919050565b7f4d65646963696e65206e6f7420617661696c61626c6520696e2073746f636b00600082015250565b60006138b3601f8361275f565b91506138be8261387d565b602082019050919050565b600060208201905081810360008301526138e2816138a6565b9050919050565b7f496e76616c696420737461676500000000000000000000000000000000000000600082015250565b600061391f600d8361275f565b915061392a826138e9565b602082019050919050565b6000602082019050818103600083015261394e81613912565b905091905056fea2646970667358221220898892156103303e173b528d153b4a5adfd5d492ab32faa5d54b389b945efbee64736f6c634300081c0033",
  "linkReferences": {},
  "deployedLinkReferences": {}
}